{
  "contractName": "ClientContract",
  "abi": [
    {
      "inputs": [],
      "payable": false,
      "stateMutability": "nonpayable",
      "type": "constructor"
    },
    {
      "constant": true,
      "inputs": [],
      "name": "clientCount",
      "outputs": [
        {
          "internalType": "uint256",
          "name": "",
          "type": "uint256"
        }
      ],
      "payable": false,
      "stateMutability": "view",
      "type": "function"
    },
    {
      "constant": true,
      "inputs": [
        {
          "internalType": "uint256",
          "name": "",
          "type": "uint256"
        }
      ],
      "name": "clients",
      "outputs": [
        {
          "internalType": "address",
          "name": "_client_id",
          "type": "address"
        },
        {
          "internalType": "string",
          "name": "_client_name",
          "type": "string"
        }
      ],
      "payable": false,
      "stateMutability": "view",
      "type": "function"
    },
    {
      "constant": true,
      "inputs": [],
      "name": "perscriptionCount",
      "outputs": [
        {
          "internalType": "uint256",
          "name": "",
          "type": "uint256"
        }
      ],
      "payable": false,
      "stateMutability": "view",
      "type": "function"
    },
    {
      "constant": true,
      "inputs": [],
      "name": "requestCount",
      "outputs": [
        {
          "internalType": "uint256",
          "name": "",
          "type": "uint256"
        }
      ],
      "payable": false,
      "stateMutability": "view",
      "type": "function"
    },
    {
      "constant": false,
      "inputs": [
        {
          "internalType": "address",
          "name": "_client_id",
          "type": "address"
        },
        {
          "internalType": "string",
          "name": "_client_name",
          "type": "string"
        }
      ],
      "name": "addClient",
      "outputs": [],
      "payable": false,
      "stateMutability": "nonpayable",
      "type": "function"
    },
    {
      "constant": true,
      "inputs": [
        {
          "internalType": "uint256",
          "name": "index",
          "type": "uint256"
        }
      ],
      "name": "getClient",
      "outputs": [
        {
          "internalType": "address",
          "name": "",
          "type": "address"
        },
        {
          "internalType": "string",
          "name": "",
          "type": "string"
        }
      ],
      "payable": false,
      "stateMutability": "view",
      "type": "function"
    },
    {
      "constant": false,
      "inputs": [
        {
          "internalType": "address",
          "name": "_client_id",
          "type": "address"
        },
        {
          "internalType": "string",
          "name": "_drug_id",
          "type": "string"
        }
      ],
      "name": "requestPerscription",
      "outputs": [],
      "payable": false,
      "stateMutability": "nonpayable",
      "type": "function"
    },
    {
      "constant": true,
      "inputs": [
        {
          "internalType": "uint256",
          "name": "index",
          "type": "uint256"
        }
      ],
      "name": "getRequest",
      "outputs": [
        {
          "internalType": "string",
          "name": "",
          "type": "string"
        },
        {
          "internalType": "address",
          "name": "",
          "type": "address"
        }
      ],
      "payable": false,
      "stateMutability": "view",
      "type": "function"
    },
    {
      "constant": false,
      "inputs": [
        {
          "internalType": "address",
          "name": "_client_id",
          "type": "address"
        },
        {
          "internalType": "string",
          "name": "_drug_id",
          "type": "string"
        },
        {
          "internalType": "uint256",
          "name": "_index",
          "type": "uint256"
        }
      ],
      "name": "givePerscriptionWithIndex",
      "outputs": [],
      "payable": false,
      "stateMutability": "nonpayable",
      "type": "function"
    },
    {
      "constant": false,
      "inputs": [
        {
          "internalType": "address",
          "name": "_client_id",
          "type": "address"
        },
        {
          "internalType": "string",
          "name": "_drug_id",
          "type": "string"
        }
      ],
      "name": "givePerscriptionWithoutIndex",
      "outputs": [],
      "payable": false,
      "stateMutability": "nonpayable",
      "type": "function"
    },
    {
      "constant": false,
      "inputs": [
        {
          "internalType": "uint256",
          "name": "index",
          "type": "uint256"
        }
      ],
      "name": "removeRequest",
      "outputs": [],
      "payable": false,
      "stateMutability": "nonpayable",
      "type": "function"
    },
    {
      "constant": false,
      "inputs": [
        {
          "internalType": "address",
          "name": "_client_id",
          "type": "address"
        },
        {
          "internalType": "string",
          "name": "_drug_id",
          "type": "string"
        }
      ],
      "name": "removeRequestWithoutIndex",
      "outputs": [],
      "payable": false,
      "stateMutability": "nonpayable",
      "type": "function"
    }
  ],
  "bytecode": "0x6080604052600080556000600255600060045534801561001e57600080fd5b5033600660006101000a81548173ffffffffffffffffffffffffffffffffffffffff021916908373ffffffffffffffffffffffffffffffffffffffff16021790555061148d8061006f6000396000f3fe608060405234801561001057600080fd5b50600436106100b45760003560e01c8063d0068f8011610071578063d0068f8014610178578063d0baa2b1146101a9578063d3ea041a146101c7578063e292ec08146101e3578063e541c71e146101ff578063f88af21d1461021d576100b4565b806344786fc3146100b95780635badbe4c146100d557806369988402146100f357806370b5fa021461010f578063a784678a1461012b578063c58343ef14610147575b600080fd5b6100d360048036036100ce9190810190611084565b61024e565b005b6100dd61049e565b6040516100ea91906112d2565b60405180910390f35b61010d60048036036101089190810190610fc9565b6104a4565b005b61012960048036036101249190810190610fc9565b610583565b005b61014560048036036101409190810190610fc9565b6106fd565b005b610161600480360361015c9190810190611084565b6107fd565b60405161016f929190611282565b60405180910390f35b610192600480360361018d9190810190611084565b610999565b6040516101a0929190611252565b60405180910390f35b6101b1610b2f565b6040516101be91906112d2565b60405180910390f35b6101e160048036036101dc919081019061101d565b610b35565b005b6101fd60048036036101f89190810190610fc9565b610c14565b005b610207610ce8565b60405161021491906112d2565b60405180910390f35b61023760048036036102329190810190611084565b610cee565b604051610245929190611222565b60405180910390f35b600660009054906101000a900473ffffffffffffffffffffffffffffffffffffffff1673ffffffffffffffffffffffffffffffffffffffff163373ffffffffffffffffffffffffffffffffffffffff16146102de576040517f08c379a00000000000000000000000000000000000000000000000000000000081526004016102d5906112b2565b60405180910390fd5b60025481106102ec5761049b565b60008190505b60016002540381101561041a576003600182018154811061030f57fe5b90600052602060002090600302016003828154811061032a57fe5b906000526020600020906003020160008201548160000155600182018160010160008201816000019080546001816001161561010002031660029004610371929190610dd7565b506001820160009054906101000a900473ffffffffffffffffffffffffffffffffffffffff168160010160006101000a81548173ffffffffffffffffffffffffffffffffffffffff021916908373ffffffffffffffffffffffffffffffffffffffff1602179055505050905050600381815481106103eb57fe5b9060005260206000209060030201600001600081548092919060019003919050555080806001019150506102f2565b5060036001600380549050038154811061043057fe5b9060005260206000209060030201600080820160009055600182016000808201600061045c9190610e5e565b6001820160006101000a81549073ffffffffffffffffffffffffffffffffffffffff021916905550505050600260008154809291906001900391905055505b50565b60025481565b600560405180604001604052808381526020018473ffffffffffffffffffffffffffffffffffffffff16815250908060018154018082558091505090600182039060005260206000209060020201600090919290919091506000820151816000019080519060200190610518929190610ea6565b5060208201518160010160006101000a81548173ffffffffffffffffffffffffffffffffffffffff021916908373ffffffffffffffffffffffffffffffffffffffff16021790555050505060046000815480929190600101919050555061057f8282610583565b5050565b600660009054906101000a900473ffffffffffffffffffffffffffffffffffffffff1673ffffffffffffffffffffffffffffffffffffffff163373ffffffffffffffffffffffffffffffffffffffff1614610613576040517f08c379a000000000000000000000000000000000000000000000000000000000815260040161060a906112b2565b60405180910390fd5b60008090505b6002548110156106f8578273ffffffffffffffffffffffffffffffffffffffff166003828154811061064757fe5b906000526020600020906003020160010160010160009054906101000a900473ffffffffffffffffffffffffffffffffffffffff1673ffffffffffffffffffffffffffffffffffffffff1614156106eb578180519060200120600382815481106106ad57fe5b90600052602060002090600302016001016000016040516106ce919061120b565b604051809103902014156106ea576106e58161024e565b6106f8565b5b8080600101915050610619565b505050565b60036040518060400160405280600254815260200160405180604001604052808581526020018673ffffffffffffffffffffffffffffffffffffffff168152508152509080600181540180825580915050906001820390600052602060002090600302016000909192909190915060008201518160000155602082015181600101600082015181600001908051906020019061079a929190610ea6565b5060208201518160010160006101000a81548173ffffffffffffffffffffffffffffffffffffffff021916908373ffffffffffffffffffffffffffffffffffffffff16021790555050505050506002600081548092919060010191905055505050565b60606000600660009054906101000a900473ffffffffffffffffffffffffffffffffffffffff1673ffffffffffffffffffffffffffffffffffffffff163373ffffffffffffffffffffffffffffffffffffffff1614610891576040517f08c379a0000000000000000000000000000000000000000000000000000000008152600401610888906112b2565b60405180910390fd5b6003838154811061089e57fe5b9060005260206000209060030201600101600001600384815481106108bf57fe5b906000526020600020906003020160010160010160009054906101000a900473ffffffffffffffffffffffffffffffffffffffff16818054600181600116156101000203166002900480601f0160208091040260200160405190810160405280929190818152602001828054600181600116156101000203166002900480156109895780601f1061095e57610100808354040283529160200191610989565b820191906000526020600020905b81548152906001019060200180831161096c57829003601f168201915b5050505050915091509150915091565b60006060600660009054906101000a900473ffffffffffffffffffffffffffffffffffffffff1673ffffffffffffffffffffffffffffffffffffffff163373ffffffffffffffffffffffffffffffffffffffff1614610a2d576040517f08c379a0000000000000000000000000000000000000000000000000000000008152600401610a24906112b2565b60405180910390fd5b60018381548110610a3a57fe5b906000526020600020906002020160000160009054906101000a900473ffffffffffffffffffffffffffffffffffffffff1660018481548110610a7957fe5b9060005260206000209060020201600101808054600181600116156101000203166002900480601f016020809104026020016040519081016040528092919081815260200182805460018160011615610100020316600290048015610b1f5780601f10610af457610100808354040283529160200191610b1f565b820191906000526020600020905b815481529060010190602001808311610b0257829003601f168201915b5050505050905091509150915091565b60045481565b600560405180604001604052808481526020018573ffffffffffffffffffffffffffffffffffffffff16815250908060018154018082558091505090600182039060005260206000209060020201600090919290919091506000820151816000019080519060200190610ba9929190610ea6565b5060208201518160010160006101000a81548173ffffffffffffffffffffffffffffffffffffffff021916908373ffffffffffffffffffffffffffffffffffffffff160217905550505050600460008154809291906001019190505550610c0f8161024e565b505050565b600160405180604001604052808473ffffffffffffffffffffffffffffffffffffffff168152602001838152509080600181540180825580915050906001820390600052602060002090600202016000909192909190915060008201518160000160006101000a81548173ffffffffffffffffffffffffffffffffffffffff021916908373ffffffffffffffffffffffffffffffffffffffff1602179055506020820151816001019080519060200190610ccf929190610ea6565b5050505060008081548092919060010191905055505050565b60005481565b60018181548110610cfb57fe5b90600052602060002090600202016000915090508060000160009054906101000a900473ffffffffffffffffffffffffffffffffffffffff1690806001018054600181600116156101000203166002900480601f016020809104026020016040519081016040528092919081815260200182805460018160011615610100020316600290048015610dcd5780601f10610da257610100808354040283529160200191610dcd565b820191906000526020600020905b815481529060010190602001808311610db057829003601f168201915b5050505050905082565b828054600181600116156101000203166002900490600052602060002090601f016020900481019282601f10610e105780548555610e4d565b82800160010185558215610e4d57600052602060002091601f016020900482015b82811115610e4c578254825591600101919060010190610e31565b5b509050610e5a9190610f26565b5090565b50805460018160011615610100020316600290046000825580601f10610e845750610ea3565b601f016020900490600052602060002090810190610ea29190610f26565b5b50565b828054600181600116156101000203166002900490600052602060002090601f016020900481019282601f10610ee757805160ff1916838001178555610f15565b82800160010185558215610f15579182015b82811115610f14578251825591602001919060010190610ef9565b5b509050610f229190610f26565b5090565b610f4891905b80821115610f44576000816000905550600101610f2c565b5090565b90565b600081359050610f5a8161141c565b92915050565b600082601f830112610f7157600080fd5b8135610f84610f7f8261131a565b6112ed565b91508082526020830160208301858383011115610fa057600080fd5b610fab8382846113c9565b50505092915050565b600081359050610fc381611433565b92915050565b60008060408385031215610fdc57600080fd5b6000610fea85828601610f4b565b925050602083013567ffffffffffffffff81111561100757600080fd5b61101385828601610f60565b9150509250929050565b60008060006060848603121561103257600080fd5b600061104086828701610f4b565b935050602084013567ffffffffffffffff81111561105d57600080fd5b61106986828701610f60565b925050604061107a86828701610fb4565b9150509250925092565b60006020828403121561109657600080fd5b60006110a484828501610fb4565b91505092915050565b6110b68161138d565b82525050565b6000815460018116600081146110d957600181146110fe57611142565b607f60028304166110ea8187611371565b955060ff1983168652808601935050611142565b6002820461110c8187611371565b955061111785611346565b60005b828110156111395781548189015260018201915060208101905061111a565b82880195505050505b505092915050565b600061115582611366565b61115f818561137c565b935061116f8185602086016113d8565b6111788161140b565b840191505092915050565b600061118e8261135b565b611198818561137c565b93506111a88185602086016113d8565b6111b18161140b565b840191505092915050565b60006111c960168361137c565b91507f63616c6c6572206973206e6f74206120646f63746f72000000000000000000006000830152602082019050919050565b611205816113bf565b82525050565b600061121782846110bc565b915081905092915050565b600060408201905061123760008301856110ad565b81810360208301526112498184611183565b90509392505050565b600060408201905061126760008301856110ad565b8181036020830152611279818461114a565b90509392505050565b6000604082019050818103600083015261129c818561114a565b90506112ab60208301846110ad565b9392505050565b600060208201905081810360008301526112cb816111bc565b9050919050565b60006020820190506112e760008301846111fc565b92915050565b6000604051905081810181811067ffffffffffffffff8211171561131057600080fd5b8060405250919050565b600067ffffffffffffffff82111561133157600080fd5b601f19601f8301169050602081019050919050565b60008190508160005260206000209050919050565b600081519050919050565b600081519050919050565b600081905092915050565b600082825260208201905092915050565b60006113988261139f565b9050919050565b600073ffffffffffffffffffffffffffffffffffffffff82169050919050565b6000819050919050565b82818337600083830152505050565b60005b838110156113f65780820151818401526020810190506113db565b83811115611405576000848401525b50505050565b6000601f19601f8301169050919050565b6114258161138d565b811461143057600080fd5b50565b61143c816113bf565b811461144757600080fd5b5056fea365627a7a72315820e3211a6af953dc87eb1f4e0381b7a17c13141f869fc714610e2f7aa0d0deea5a6c6578706572696d656e74616cf564736f6c63430005100040",
  "source": "// SPDX-License-Identifier: MIT\npragma solidity >=0.4.22 <0.9.0;\npragma experimental ABIEncoderV2;\n\ncontract ClientContract {\n    \n    struct Client {\n        address _client_id;\n        string _client_name;\n    }\n\n    struct Perscription {\n        string _drug_id;\n        address _client_id;\n    }\n\n    struct Request {\n        uint _request_number;\n        Perscription _perscription;\n    }\n        \n    uint public clientCount = 0;\n    Client[] public clients;\n    \n    uint public requestCount = 0;\n    Request[] requests;\n    \n    uint public perscriptionCount = 0;\n    Perscription[] perscriptions;\n    \n    address owner;\n\n    modifier isDoctor() {\n        require(msg.sender == owner, \"caller is not a doctor\");\n        _;\n    }\n\n    constructor() public {\n        owner = msg.sender;\n    }\n\n    function addClient(address _client_id, string memory _client_name) public {\n        clients.push(Client(_client_id, _client_name));\n        clientCount++;\n    }\n\n    function getClient(uint index) public view isDoctor returns(address, string memory) {\n        return (clients[index]._client_id, clients[index]._client_name);\n    }\n\n    function requestPerscription(address _client_id, string memory _drug_id) public {\n        requests.push(Request(requestCount, Perscription(_drug_id, _client_id)));\n        requestCount++;\n    }\n\n    function getRequest(uint index) public view isDoctor returns(string memory, address)  {\n        return (requests[index]._perscription._drug_id, requests[index]._perscription._client_id);\n    }\n\n    function givePerscriptionWithIndex(address _client_id, string memory _drug_id, uint _index) public {\n        perscriptions.push(Perscription(_drug_id, _client_id));\n        perscriptionCount++;\n        removeRequest(_index);\n    }\n    \n    function givePerscriptionWithoutIndex(address _client_id, string memory _drug_id) public {\n        perscriptions.push(Perscription(_drug_id, _client_id));\n        perscriptionCount++;\n        removeRequestWithoutIndex(_client_id, _drug_id);\n    }\n    \n    function removeRequest(uint index) public isDoctor {\n        if (index >= requestCount) return;\n        \n        for (uint i = index; i < requestCount-1; i++){\n            requests[i] = requests[i+1];\n            requests[i]._request_number--;\n        }\n        delete(requests[requests.length-1]);\n        requestCount--;\n    }\n    \n    function removeRequestWithoutIndex(address _client_id, string memory _drug_id) public isDoctor {\n        for (uint i = 0; i < requestCount; i++) {\n            if (requests[i]._perscription._client_id == _client_id) {\n                if (keccak256(bytes(requests[i]._perscription._drug_id)) == keccak256(bytes(_drug_id))) {\n                    removeRequest(i);\n                    break;\n                }\n            }\n        }\n    }\n}",
  "sourcePath": "/Users/max/dev/eth-prescriptions/contracts/ClientContract.sol",
  "compiler": {
    "name": "solc",
    "version": "0.5.16+commit.9c3226ce.Emscripten.clang"
  },
  "schemaVersion": "3.3.3",
  "updatedAt": "2021-02-06T12:46:19.032Z",
  "networkType": "ethereum",
  "devdoc": {
    "methods": {}
  },
  "userdoc": {
    "methods": {}
  }
}