{
  "contractName": "ClientContract",
  "abi": [
    {
      "inputs": [],
      "payable": false,
      "stateMutability": "nonpayable",
      "type": "constructor"
    },
    {
      "constant": true,
      "inputs": [],
      "name": "clientCount",
      "outputs": [
        {
          "internalType": "uint256",
          "name": "",
          "type": "uint256"
        }
      ],
      "payable": false,
      "stateMutability": "view",
      "type": "function"
    },
    {
      "constant": true,
      "inputs": [
        {
          "internalType": "uint256",
          "name": "",
          "type": "uint256"
        }
      ],
      "name": "clients",
      "outputs": [
        {
          "internalType": "address",
          "name": "_client_id",
          "type": "address"
        },
        {
          "internalType": "string",
          "name": "_client_name",
          "type": "string"
        }
      ],
      "payable": false,
      "stateMutability": "view",
      "type": "function"
    },
    {
      "constant": true,
      "inputs": [],
      "name": "perscriptionCount",
      "outputs": [
        {
          "internalType": "uint256",
          "name": "",
          "type": "uint256"
        }
      ],
      "payable": false,
      "stateMutability": "view",
      "type": "function"
    },
    {
      "constant": true,
      "inputs": [
        {
          "internalType": "uint256",
          "name": "",
          "type": "uint256"
        }
      ],
      "name": "perscriptions",
      "outputs": [
        {
          "internalType": "string",
          "name": "_drug_id",
          "type": "string"
        },
        {
          "internalType": "string",
          "name": "_drug_name",
          "type": "string"
        },
        {
          "internalType": "address",
          "name": "_client_id",
          "type": "address"
        }
      ],
      "payable": false,
      "stateMutability": "view",
      "type": "function"
    },
    {
      "constant": true,
      "inputs": [],
      "name": "requestCount",
      "outputs": [
        {
          "internalType": "uint256",
          "name": "",
          "type": "uint256"
        }
      ],
      "payable": false,
      "stateMutability": "view",
      "type": "function"
    },
    {
      "constant": true,
      "inputs": [
        {
          "internalType": "uint256",
          "name": "",
          "type": "uint256"
        }
      ],
      "name": "requests",
      "outputs": [
        {
          "internalType": "uint256",
          "name": "_request_number",
          "type": "uint256"
        },
        {
          "components": [
            {
              "internalType": "string",
              "name": "_drug_id",
              "type": "string"
            },
            {
              "internalType": "string",
              "name": "_drug_name",
              "type": "string"
            },
            {
              "internalType": "address",
              "name": "_client_id",
              "type": "address"
            }
          ],
          "internalType": "struct ClientContract.Perscription",
          "name": "_perscription",
          "type": "tuple"
        }
      ],
      "payable": false,
      "stateMutability": "view",
      "type": "function"
    },
    {
      "constant": true,
      "inputs": [
        {
          "internalType": "address",
          "name": "sender",
          "type": "address"
        }
      ],
      "name": "onlyPermittedDoctor",
      "outputs": [
        {
          "internalType": "bool",
          "name": "",
          "type": "bool"
        }
      ],
      "payable": false,
      "stateMutability": "pure",
      "type": "function"
    },
    {
      "constant": false,
      "inputs": [
        {
          "internalType": "address",
          "name": "_client_id",
          "type": "address"
        },
        {
          "internalType": "string",
          "name": "_client_name",
          "type": "string"
        }
      ],
      "name": "addClient",
      "outputs": [],
      "payable": false,
      "stateMutability": "nonpayable",
      "type": "function"
    },
    {
      "constant": true,
      "inputs": [
        {
          "internalType": "uint256",
          "name": "index",
          "type": "uint256"
        }
      ],
      "name": "getClient",
      "outputs": [
        {
          "internalType": "address",
          "name": "",
          "type": "address"
        },
        {
          "internalType": "string",
          "name": "",
          "type": "string"
        }
      ],
      "payable": false,
      "stateMutability": "view",
      "type": "function"
    },
    {
      "constant": true,
      "inputs": [
        {
          "internalType": "uint256",
          "name": "index",
          "type": "uint256"
        }
      ],
      "name": "getPerscription",
      "outputs": [
        {
          "internalType": "address",
          "name": "",
          "type": "address"
        },
        {
          "internalType": "string",
          "name": "",
          "type": "string"
        },
        {
          "internalType": "string",
          "name": "",
          "type": "string"
        }
      ],
      "payable": false,
      "stateMutability": "view",
      "type": "function"
    },
    {
      "constant": false,
      "inputs": [
        {
          "internalType": "address",
          "name": "_client_id",
          "type": "address"
        },
        {
          "internalType": "string",
          "name": "_drug_id",
          "type": "string"
        },
        {
          "internalType": "string",
          "name": "_drug_name",
          "type": "string"
        }
      ],
      "name": "requestPerscription",
      "outputs": [],
      "payable": false,
      "stateMutability": "nonpayable",
      "type": "function"
    },
    {
      "constant": true,
      "inputs": [
        {
          "internalType": "uint256",
          "name": "index",
          "type": "uint256"
        }
      ],
      "name": "getRequest",
      "outputs": [
        {
          "internalType": "uint256",
          "name": "",
          "type": "uint256"
        },
        {
          "internalType": "address",
          "name": "",
          "type": "address"
        },
        {
          "internalType": "string",
          "name": "",
          "type": "string"
        },
        {
          "internalType": "string",
          "name": "",
          "type": "string"
        }
      ],
      "payable": false,
      "stateMutability": "view",
      "type": "function"
    },
    {
      "constant": false,
      "inputs": [
        {
          "internalType": "address",
          "name": "_client_id",
          "type": "address"
        },
        {
          "internalType": "string",
          "name": "_drug_id",
          "type": "string"
        },
        {
          "internalType": "string",
          "name": "_drug_name",
          "type": "string"
        },
        {
          "internalType": "uint256",
          "name": "_index",
          "type": "uint256"
        }
      ],
      "name": "givePerscriptionWithIndex",
      "outputs": [],
      "payable": false,
      "stateMutability": "nonpayable",
      "type": "function"
    },
    {
      "constant": false,
      "inputs": [
        {
          "internalType": "address",
          "name": "_client_id",
          "type": "address"
        },
        {
          "internalType": "string",
          "name": "_drug_name",
          "type": "string"
        },
        {
          "internalType": "string",
          "name": "_drug_id",
          "type": "string"
        }
      ],
      "name": "givePerscriptionWithoutIndex",
      "outputs": [],
      "payable": false,
      "stateMutability": "nonpayable",
      "type": "function"
    },
    {
      "constant": false,
      "inputs": [
        {
          "internalType": "uint256",
          "name": "index",
          "type": "uint256"
        }
      ],
      "name": "removeRequest",
      "outputs": [],
      "payable": false,
      "stateMutability": "nonpayable",
      "type": "function"
    },
    {
      "constant": false,
      "inputs": [
        {
          "internalType": "address",
          "name": "_client_id",
          "type": "address"
        },
        {
          "internalType": "string",
          "name": "_drug_id",
          "type": "string"
        }
      ],
      "name": "removeRequestWithoutIndex",
      "outputs": [],
      "payable": false,
      "stateMutability": "nonpayable",
      "type": "function"
    }
  ],
  "bytecode": "0x60806040526000805560006002556000600455604051806020016040528073e092b1fa25df5786d151246e492eed3d15ea4daa73ffffffffffffffffffffffffffffffffffffffff1673ffffffffffffffffffffffffffffffffffffffff1681525060069060016200007392919062000088565b503480156200008157600080fd5b506200015d565b82805482825590600052602060002090810192821562000104579160200282015b82811115620001035782518260006101000a81548173ffffffffffffffffffffffffffffffffffffffff021916908373ffffffffffffffffffffffffffffffffffffffff16021790555091602001919060010190620000a9565b5b50905062000113919062000117565b5090565b6200015a91905b808211156200015657600081816101000a81549073ffffffffffffffffffffffffffffffffffffffff0219169055506001016200011e565b5090565b90565b611e64806200016d6000396000f3fe608060405234801561001057600080fd5b50600436106101005760003560e01c8063bc6dee4f11610097578063e292ec0811610066578063e292ec08146102da578063e541c71e146102f6578063f69959f014610314578063f88af21d1461033057610100565b8063bc6dee4f1461023c578063c58343ef14610258578063d0068f801461028b578063d0baa2b1146102bc57610100565b806370b5fa02116100d357806370b5fa021461018d57806381d12c58146101a95780639bd99ce2146101da578063b55e49a01461020c57610100565b80633015c9871461010557806344786fc31461012157806358be05011461013d5780635badbe4c1461016f575b600080fd5b61011f600480360361011a9190810190611786565b610361565b005b61013b60048036036101369190810190611898565b6104ac565b005b61015760048036036101529190810190611898565b6106ec565b60405161016693929190611ba4565b60405180910390f35b610177610873565b6040516101849190611c09565b60405180910390f35b6101a760048036036101a29190810190611732565b610879565b005b6101c360048036036101be9190810190611898565b6109ab565b6040516101d1929190611c77565b60405180910390f35b6101f460048036036101ef9190810190611898565b610b80565b60405161020393929190611b44565b60405180910390f35b61022660048036036102219190810190611709565b610d45565b6040516102339190611b89565b60405180910390f35b61025660048036036102519190810190611805565b610da1565b005b610272600480360361026d9190810190611898565b610eec565b6040516102829493929190611c24565b60405180910390f35b6102a560048036036102a09190810190611898565b6110dc565b6040516102b3929190611b14565b60405180910390f35b6102c461122a565b6040516102d19190611c09565b60405180910390f35b6102f460048036036102ef9190810190611732565b611230565b005b6102fe611304565b60405161030b9190611c09565b60405180910390f35b61032e60048036036103299190810190611786565b61130a565b005b61034a60048036036103459190810190611898565b61142e565b604051610358929190611ae4565b60405180910390f35b61036a33610d45565b6103a9576040517f08c379a00000000000000000000000000000000000000000000000000000000081526004016103a090611be9565b60405180910390fd5b600560405180606001604052808381526020018481526020018573ffffffffffffffffffffffffffffffffffffffff16815250908060018154018082558091505090600182039060005260206000209060030201600090919290919091506000820151816000019080519060200190610423929190611517565b506020820151816001019080519060200190610440929190611517565b5060408201518160020160006101000a81548173ffffffffffffffffffffffffffffffffffffffff021916908373ffffffffffffffffffffffffffffffffffffffff1602179055505050506004600081548092919060010191905055506104a78382610879565b505050565b6104b533610d45565b6104f4576040517f08c379a00000000000000000000000000000000000000000000000000000000081526004016104eb90611be9565b60405180910390fd5b6002548110610502576106e9565b60008190505b600160025403811015610658576003600182018154811061052557fe5b90600052602060002090600402016003828154811061054057fe5b906000526020600020906004020160008201548160000155600182018160010160008201816000019080546001816001161561010002031660029004610587929190611597565b50600182018160010190805460018160011615610100020316600290046105af929190611597565b506002820160009054906101000a900473ffffffffffffffffffffffffffffffffffffffff168160020160006101000a81548173ffffffffffffffffffffffffffffffffffffffff021916908373ffffffffffffffffffffffffffffffffffffffff16021790555050509050506003818154811061062957fe5b906000526020600020906004020160000160008154809291906001900391905055508080600101915050610508565b5060036001600380549050038154811061066e57fe5b9060005260206000209060040201600080820160009055600182016000808201600061069a919061161e565b6001820160006106aa919061161e565b6002820160006101000a81549073ffffffffffffffffffffffffffffffffffffffff021916905550505050600260008154809291906001900391905055505b50565b600581815481106106f957fe5b9060005260206000209060030201600091509050806000018054600181600116156101000203166002900480601f0160208091040260200160405190810160405280929190818152602001828054600181600116156101000203166002900480156107a55780601f1061077a576101008083540402835291602001916107a5565b820191906000526020600020905b81548152906001019060200180831161078857829003601f168201915b505050505090806001018054600181600116156101000203166002900480601f0160208091040260200160405190810160405280929190818152602001828054600181600116156101000203166002900480156108435780601f1061081857610100808354040283529160200191610843565b820191906000526020600020905b81548152906001019060200180831161082657829003601f168201915b5050505050908060020160009054906101000a900473ffffffffffffffffffffffffffffffffffffffff16905083565b60025481565b61088233610d45565b6108c1576040517f08c379a00000000000000000000000000000000000000000000000000000000081526004016108b890611be9565b60405180910390fd5b60008090505b6002548110156109a6578273ffffffffffffffffffffffffffffffffffffffff16600382815481106108f557fe5b906000526020600020906004020160010160020160009054906101000a900473ffffffffffffffffffffffffffffffffffffffff1673ffffffffffffffffffffffffffffffffffffffff1614156109995781805190602001206003828154811061095b57fe5b906000526020600020906004020160010160000160405161097c9190611acd565b6040518091039020141561099857610993816104ac565b6109a6565b5b80806001019150506108c7565b505050565b600381815481106109b857fe5b906000526020600020906004020160009150905080600001549080600101604051806060016040529081600082018054600181600116156101000203166002900480601f016020809104026020016040519081016040528092919081815260200182805460018160011615610100020316600290048015610a7a5780601f10610a4f57610100808354040283529160200191610a7a565b820191906000526020600020905b815481529060010190602001808311610a5d57829003601f168201915b50505050508152602001600182018054600181600116156101000203166002900480601f016020809104026020016040519081016040528092919081815260200182805460018160011615610100020316600290048015610b1c5780601f10610af157610100808354040283529160200191610b1c565b820191906000526020600020905b815481529060010190602001808311610aff57829003601f168201915b505050505081526020016002820160009054906101000a900473ffffffffffffffffffffffffffffffffffffffff1673ffffffffffffffffffffffffffffffffffffffff1673ffffffffffffffffffffffffffffffffffffffff1681525050905082565b600060608060058481548110610b9257fe5b906000526020600020906003020160020160009054906101000a900473ffffffffffffffffffffffffffffffffffffffff1660058581548110610bd157fe5b906000526020600020906003020160000160058681548110610bef57fe5b9060005260206000209060030201600101818054600181600116156101000203166002900480601f016020809104026020016040519081016040528092919081815260200182805460018160011615610100020316600290048015610c955780601f10610c6a57610100808354040283529160200191610c95565b820191906000526020600020905b815481529060010190602001808311610c7857829003601f168201915b50505050509150808054600181600116156101000203166002900480601f016020809104026020016040519081016040528092919081815260200182805460018160011615610100020316600290048015610d315780601f10610d0657610100808354040283529160200191610d31565b820191906000526020600020905b815481529060010190602001808311610d1457829003601f168201915b505050505090509250925092509193909250565b600073e092b1fa25df5786d151246e492eed3d15ea4daa73ffffffffffffffffffffffffffffffffffffffff168273ffffffffffffffffffffffffffffffffffffffff1614610d975760009050610d9c565b600190505b919050565b610daa33610d45565b610de9576040517f08c379a0000000000000000000000000000000000000000000000000000000008152600401610de090611be9565b60405180910390fd5b600560405180606001604052808581526020018481526020018673ffffffffffffffffffffffffffffffffffffffff16815250908060018154018082558091505090600182039060005260206000209060030201600090919290919091506000820151816000019080519060200190610e63929190611517565b506020820151816001019080519060200190610e80929190611517565b5060408201518160020160006101000a81548173ffffffffffffffffffffffffffffffffffffffff021916908373ffffffffffffffffffffffffffffffffffffffff160217905550505050600460008154809291906001019190505550610ee6816104ac565b50505050565b60008060608060038581548110610eff57fe5b90600052602060002090600402016000015460038681548110610f1e57fe5b906000526020600020906004020160010160020160009054906101000a900473ffffffffffffffffffffffffffffffffffffffff1660038781548110610f6057fe5b906000526020600020906004020160010160000160038881548110610f8157fe5b9060005260206000209060040201600101600101818054600181600116156101000203166002900480601f01602080910402602001604051908101604052809291908181526020018280546001816001161561010002031660029004801561102a5780601f10610fff5761010080835404028352916020019161102a565b820191906000526020600020905b81548152906001019060200180831161100d57829003601f168201915b50505050509150808054600181600116156101000203166002900480601f0160208091040260200160405190810160405280929190818152602001828054600181600116156101000203166002900480156110c65780601f1061109b576101008083540402835291602001916110c6565b820191906000526020600020905b8154815290600101906020018083116110a957829003601f168201915b5050505050905093509350935093509193509193565b600060606110e933610d45565b611128576040517f08c379a000000000000000000000000000000000000000000000000000000000815260040161111f90611be9565b60405180910390fd5b6001838154811061113557fe5b906000526020600020906002020160000160009054906101000a900473ffffffffffffffffffffffffffffffffffffffff166001848154811061117457fe5b9060005260206000209060020201600101808054600181600116156101000203166002900480601f01602080910402602001604051908101604052809291908181526020018280546001816001161561010002031660029004801561121a5780601f106111ef5761010080835404028352916020019161121a565b820191906000526020600020905b8154815290600101906020018083116111fd57829003601f168201915b5050505050905091509150915091565b60045481565b600160405180604001604052808473ffffffffffffffffffffffffffffffffffffffff168152602001838152509080600181540180825580915050906001820390600052602060002090600202016000909192909190915060008201518160000160006101000a81548173ffffffffffffffffffffffffffffffffffffffff021916908373ffffffffffffffffffffffffffffffffffffffff16021790555060208201518160010190805190602001906112eb929190611517565b5050505060008081548092919060010191905055505050565b60005481565b60036040518060400160405280600254815260200160405180606001604052808681526020018581526020018773ffffffffffffffffffffffffffffffffffffffff16815250815250908060018154018082558091505090600182039060005260206000209060040201600090919290919091506000820151816000015560208201518160010160008201518160000190805190602001906113ad929190611517565b5060208201518160010190805190602001906113ca929190611517565b5060408201518160020160006101000a81548173ffffffffffffffffffffffffffffffffffffffff021916908373ffffffffffffffffffffffffffffffffffffffff1602179055505050505050600260008154809291906001019190505550505050565b6001818154811061143b57fe5b90600052602060002090600202016000915090508060000160009054906101000a900473ffffffffffffffffffffffffffffffffffffffff1690806001018054600181600116156101000203166002900480601f01602080910402602001604051908101604052809291908181526020018280546001816001161561010002031660029004801561150d5780601f106114e25761010080835404028352916020019161150d565b820191906000526020600020905b8154815290600101906020018083116114f057829003601f168201915b5050505050905082565b828054600181600116156101000203166002900490600052602060002090601f016020900481019282601f1061155857805160ff1916838001178555611586565b82800160010185558215611586579182015b8281111561158557825182559160200191906001019061156a565b5b5090506115939190611666565b5090565b828054600181600116156101000203166002900490600052602060002090601f016020900481019282601f106115d0578054855561160d565b8280016001018555821561160d57600052602060002091601f016020900482015b8281111561160c5782548255916001019190600101906115f1565b5b50905061161a9190611666565b5090565b50805460018160011615610100020316600290046000825580601f106116445750611663565b601f0160209004906000526020600020908101906116629190611666565b5b50565b61168891905b8082111561168457600081600090555060010161166c565b5090565b90565b60008135905061169a81611df3565b92915050565b600082601f8301126116b157600080fd5b81356116c46116bf82611cd4565b611ca7565b915080825260208301602083018583830111156116e057600080fd5b6116eb838284611da0565b50505092915050565b60008135905061170381611e0a565b92915050565b60006020828403121561171b57600080fd5b60006117298482850161168b565b91505092915050565b6000806040838503121561174557600080fd5b60006117538582860161168b565b925050602083013567ffffffffffffffff81111561177057600080fd5b61177c858286016116a0565b9150509250929050565b60008060006060848603121561179b57600080fd5b60006117a98682870161168b565b935050602084013567ffffffffffffffff8111156117c657600080fd5b6117d2868287016116a0565b925050604084013567ffffffffffffffff8111156117ef57600080fd5b6117fb868287016116a0565b9150509250925092565b6000806000806080858703121561181b57600080fd5b60006118298782880161168b565b945050602085013567ffffffffffffffff81111561184657600080fd5b611852878288016116a0565b935050604085013567ffffffffffffffff81111561186f57600080fd5b61187b878288016116a0565b925050606061188c878288016116f4565b91505092959194509250565b6000602082840312156118aa57600080fd5b60006118b8848285016116f4565b91505092915050565b6118ca81611d58565b82525050565b6118d981611d58565b82525050565b6118e881611d6a565b82525050565b60008154600181166000811461190b576001811461193057611974565b607f600283041661191c8187611d2b565b955060ff1983168652808601935050611974565b6002820461193e8187611d2b565b955061194985611d00565b60005b8281101561196b5781548189015260018201915060208101905061194c565b82880195505050505b505092915050565b600061198782611d20565b6119918185611d47565b93506119a1818560208601611daf565b6119aa81611de2565b840191505092915050565b60006119c082611d15565b6119ca8185611d36565b93506119da818560208601611daf565b6119e381611de2565b840191505092915050565b60006119f982611d15565b611a038185611d47565b9350611a13818560208601611daf565b611a1c81611de2565b840191505092915050565b6000611a34601683611d47565b91507f63616c6c6572206973206e6f74206120646f63746f72000000000000000000006000830152602082019050919050565b60006060830160008301518482036000860152611a8482826119b5565b91505060208301518482036020860152611a9e82826119b5565b9150506040830151611ab360408601826118c1565b508091505092915050565b611ac781611d96565b82525050565b6000611ad982846118ee565b915081905092915050565b6000604082019050611af960008301856118d0565b8181036020830152611b0b81846119ee565b90509392505050565b6000604082019050611b2960008301856118d0565b8181036020830152611b3b818461197c565b90509392505050565b6000606082019050611b5960008301866118d0565b8181036020830152611b6b818561197c565b90508181036040830152611b7f818461197c565b9050949350505050565b6000602082019050611b9e60008301846118df565b92915050565b60006060820190508181036000830152611bbe81866119ee565b90508181036020830152611bd281856119ee565b9050611be160408301846118d0565b949350505050565b60006020820190508181036000830152611c0281611a27565b9050919050565b6000602082019050611c1e6000830184611abe565b92915050565b6000608082019050611c396000830187611abe565b611c4660208301866118d0565b8181036040830152611c58818561197c565b90508181036060830152611c6c818461197c565b905095945050505050565b6000604082019050611c8c6000830185611abe565b8181036020830152611c9e8184611a67565b90509392505050565b6000604051905081810181811067ffffffffffffffff82111715611cca57600080fd5b8060405250919050565b600067ffffffffffffffff821115611ceb57600080fd5b601f19601f8301169050602081019050919050565b60008190508160005260206000209050919050565b600081519050919050565b600081519050919050565b600081905092915050565b600082825260208201905092915050565b600082825260208201905092915050565b6000611d6382611d76565b9050919050565b60008115159050919050565b600073ffffffffffffffffffffffffffffffffffffffff82169050919050565b6000819050919050565b82818337600083830152505050565b60005b83811015611dcd578082015181840152602081019050611db2565b83811115611ddc576000848401525b50505050565b6000601f19601f8301169050919050565b611dfc81611d58565b8114611e0757600080fd5b50565b611e1381611d96565b8114611e1e57600080fd5b5056fea365627a7a723158202512fd4cfe8f358bcaafdbe0ddccc75d0d1023addfe1b8bbd301bee365a221e86c6578706572696d656e74616cf564736f6c63430005100040",
  "source": "// SPDX-License-Identifier: MIT\r\npragma solidity >=0.4.22 <0.9.0;\r\npragma experimental ABIEncoderV2;\r\n\r\ncontract ClientContract {\r\n    \r\n    struct Client {\r\n        address _client_id;\r\n        string _client_name;\r\n    }\r\n\r\n    struct Perscription {\r\n        string _drug_id;\r\n        string _drug_name;\r\n        address _client_id;\r\n    }\r\n\r\n    struct Request {\r\n        uint _request_number;\r\n        Perscription _perscription;\r\n    }\r\n        \r\n    uint public clientCount = 0;\r\n    Client[] public clients;\r\n    \r\n    uint public requestCount = 0;\r\n    Request[] public requests;\r\n    \r\n    uint public perscriptionCount = 0;\r\n    Perscription[] public perscriptions;\r\n    \r\n    address[] private permitted = [address(0xe092b1fa25DF5786D151246E492Eed3d15EA4dAA)];\r\n\r\n    function onlyPermittedDoctor(address sender) public pure returns(bool){\r\n        if (sender != address(0xe092b1fa25DF5786D151246E492Eed3d15EA4dAA))\r\n                return false;\r\n        return true;\r\n    }\r\n\r\n    modifier isDoctor(){\r\n        require(onlyPermittedDoctor(msg.sender), 'caller is not a doctor');\r\n        _;\r\n    }\r\n\r\n    constructor() public {\r\n    }\r\n\r\n    function addClient(address _client_id, string memory _client_name) public {\r\n        clients.push(Client(_client_id, _client_name));\r\n        clientCount++;\r\n    }\r\n\r\n    function getClient(uint index) public view isDoctor returns(address, string memory) {\r\n        return (clients[index]._client_id, clients[index]._client_name);\r\n    }\r\n    \r\n    function getPerscription(uint index) public view returns(address, string memory, string memory) {\r\n        return (perscriptions[index]._client_id, perscriptions[index]._drug_id, perscriptions[index]._drug_name);\r\n    }\r\n    \r\n    function requestPerscription(address _client_id, string memory _drug_id, string memory _drug_name) public {\r\n        requests.push(Request(requestCount, Perscription(_drug_id, _drug_name, _client_id)));\r\n        requestCount++;\r\n    }\r\n\r\n    function getRequest(uint index) public view returns(uint, address, string memory, string memory) {\r\n        return (requests[index]._request_number, requests[index]._perscription._client_id, requests[index]._perscription._drug_id, requests[index]._perscription._drug_name);\r\n    }\r\n\r\n    function givePerscriptionWithIndex(address _client_id, string memory _drug_id, string memory _drug_name, uint _index) public isDoctor {\r\n        perscriptions.push(Perscription(_drug_id, _drug_name, _client_id));\r\n        perscriptionCount++;\r\n        removeRequest(_index);\r\n    }\r\n    \r\n    function givePerscriptionWithoutIndex(address _client_id, string memory _drug_name, string memory _drug_id) public isDoctor {\r\n        perscriptions.push(Perscription(_drug_id, _drug_name, _client_id));\r\n        perscriptionCount++;\r\n        removeRequestWithoutIndex(_client_id, _drug_id);\r\n    }\r\n    \r\n    function removeRequest(uint index) public isDoctor {\r\n        if (index >= requestCount) return;\r\n        \r\n        for (uint i = index; i < requestCount-1; i++){\r\n            requests[i] = requests[i+1];\r\n            requests[i]._request_number--;\r\n        }\r\n        delete(requests[requests.length-1]);\r\n        requestCount--;\r\n    }\r\n    \r\n    function removeRequestWithoutIndex(address _client_id, string memory _drug_id) public isDoctor {\r\n        for (uint i = 0; i < requestCount; i++) {\r\n            if (requests[i]._perscription._client_id == _client_id) {\r\n                if (keccak256(bytes(requests[i]._perscription._drug_id)) == keccak256(bytes(_drug_id))) {\r\n                    removeRequest(i);\r\n                    break;\r\n                }\r\n            }\r\n        }\r\n    }\r\n}",
  "sourcePath": "C:/dev/eth-prescriptions/contracts/ClientContract.sol",
  "compiler": {
    "name": "solc",
    "version": "0.5.16+commit.9c3226ce.Emscripten.clang"
  },
  "schemaVersion": "3.3.3",
  "updatedAt": "2021-02-15T22:20:15.280Z",
  "networkType": "ethereum",
  "devdoc": {
    "methods": {}
  },
  "userdoc": {
    "methods": {}
  }
}