{
  "contractName": "ClientContract",
  "abi": [
    {
      "inputs": [],
      "payable": false,
      "stateMutability": "nonpayable",
      "type": "constructor"
    },
    {
      "constant": true,
      "inputs": [],
      "name": "clientCount",
      "outputs": [
        {
          "internalType": "uint256",
          "name": "",
          "type": "uint256"
        }
      ],
      "payable": false,
      "stateMutability": "view",
      "type": "function"
    },
    {
      "constant": true,
      "inputs": [
        {
          "internalType": "uint256",
          "name": "",
          "type": "uint256"
        }
      ],
      "name": "clients",
      "outputs": [
        {
          "internalType": "address",
          "name": "_client_id",
          "type": "address"
        },
        {
          "internalType": "string",
          "name": "_client_name",
          "type": "string"
        }
      ],
      "payable": false,
      "stateMutability": "view",
      "type": "function"
    },
    {
      "constant": true,
      "inputs": [],
      "name": "perscriptionCount",
      "outputs": [
        {
          "internalType": "uint256",
          "name": "",
          "type": "uint256"
        }
      ],
      "payable": false,
      "stateMutability": "view",
      "type": "function"
    },
    {
      "constant": true,
      "inputs": [
        {
          "internalType": "uint256",
          "name": "",
          "type": "uint256"
        }
      ],
      "name": "perscriptions",
      "outputs": [
        {
          "internalType": "string",
          "name": "_drug_id",
          "type": "string"
        },
        {
          "internalType": "string",
          "name": "_drug_name",
          "type": "string"
        },
        {
          "internalType": "address",
          "name": "_client_id",
          "type": "address"
        },
        {
          "internalType": "uint256",
          "name": "_givenDate",
          "type": "uint256"
        },
        {
          "internalType": "uint256",
          "name": "_expiredDate",
          "type": "uint256"
        }
      ],
      "payable": false,
      "stateMutability": "view",
      "type": "function"
    },
    {
      "constant": true,
      "inputs": [],
      "name": "requestCount",
      "outputs": [
        {
          "internalType": "uint256",
          "name": "",
          "type": "uint256"
        }
      ],
      "payable": false,
      "stateMutability": "view",
      "type": "function"
    },
    {
      "constant": true,
      "inputs": [
        {
          "internalType": "address",
          "name": "sender",
          "type": "address"
        }
      ],
      "name": "onlyPermittedDoctor",
      "outputs": [
        {
          "internalType": "bool",
          "name": "",
          "type": "bool"
        }
      ],
      "payable": false,
      "stateMutability": "view",
      "type": "function"
    },
    {
      "constant": true,
      "inputs": [],
      "name": "getPermittedList",
      "outputs": [
        {
          "internalType": "address[]",
          "name": "",
          "type": "address[]"
        }
      ],
      "payable": false,
      "stateMutability": "view",
      "type": "function"
    },
    {
      "constant": true,
      "inputs": [
        {
          "internalType": "uint256",
          "name": "index",
          "type": "uint256"
        }
      ],
      "name": "getPerscription",
      "outputs": [
        {
          "internalType": "address",
          "name": "",
          "type": "address"
        },
        {
          "internalType": "string",
          "name": "",
          "type": "string"
        },
        {
          "internalType": "string",
          "name": "",
          "type": "string"
        },
        {
          "internalType": "uint256",
          "name": "",
          "type": "uint256"
        },
        {
          "internalType": "uint256",
          "name": "",
          "type": "uint256"
        }
      ],
      "payable": false,
      "stateMutability": "view",
      "type": "function"
    },
    {
      "constant": false,
      "inputs": [
        {
          "internalType": "address",
          "name": "_client_id",
          "type": "address"
        },
        {
          "internalType": "string",
          "name": "_drug_id",
          "type": "string"
        },
        {
          "internalType": "string",
          "name": "_drug_name",
          "type": "string"
        },
        {
          "internalType": "uint256",
          "name": "_requestDate",
          "type": "uint256"
        }
      ],
      "name": "requestPerscription",
      "outputs": [],
      "payable": false,
      "stateMutability": "nonpayable",
      "type": "function"
    },
    {
      "constant": true,
      "inputs": [
        {
          "internalType": "uint256",
          "name": "index",
          "type": "uint256"
        }
      ],
      "name": "getRequest",
      "outputs": [
        {
          "internalType": "uint256",
          "name": "",
          "type": "uint256"
        },
        {
          "internalType": "address",
          "name": "",
          "type": "address"
        },
        {
          "internalType": "string",
          "name": "",
          "type": "string"
        },
        {
          "internalType": "string",
          "name": "",
          "type": "string"
        },
        {
          "internalType": "uint256",
          "name": "",
          "type": "uint256"
        }
      ],
      "payable": false,
      "stateMutability": "view",
      "type": "function"
    },
    {
      "constant": false,
      "inputs": [
        {
          "internalType": "address",
          "name": "_client_id",
          "type": "address"
        },
        {
          "internalType": "string",
          "name": "_drug_id",
          "type": "string"
        },
        {
          "internalType": "string",
          "name": "_drug_name",
          "type": "string"
        },
        {
          "internalType": "uint256",
          "name": "_index",
          "type": "uint256"
        },
        {
          "internalType": "uint256",
          "name": "_givenDate",
          "type": "uint256"
        },
        {
          "internalType": "uint256",
          "name": "_expiredDate",
          "type": "uint256"
        }
      ],
      "name": "givePerscriptionWithIndex",
      "outputs": [],
      "payable": false,
      "stateMutability": "nonpayable",
      "type": "function"
    },
    {
      "constant": false,
      "inputs": [
        {
          "internalType": "address",
          "name": "_client_id",
          "type": "address"
        },
        {
          "internalType": "string",
          "name": "_drug_name",
          "type": "string"
        },
        {
          "internalType": "string",
          "name": "_drug_id",
          "type": "string"
        },
        {
          "internalType": "uint256",
          "name": "_givenDate",
          "type": "uint256"
        },
        {
          "internalType": "uint256",
          "name": "_expiredDate",
          "type": "uint256"
        }
      ],
      "name": "givePerscriptionWithoutIndex",
      "outputs": [],
      "payable": false,
      "stateMutability": "nonpayable",
      "type": "function"
    },
    {
      "constant": false,
      "inputs": [
        {
          "internalType": "uint256",
          "name": "index",
          "type": "uint256"
        }
      ],
      "name": "removeRequest",
      "outputs": [],
      "payable": false,
      "stateMutability": "nonpayable",
      "type": "function"
    },
    {
      "constant": false,
      "inputs": [
        {
          "internalType": "address",
          "name": "_client_id",
          "type": "address"
        },
        {
          "internalType": "string",
          "name": "_drug_id",
          "type": "string"
        }
      ],
      "name": "removeRequestWithoutIndex",
      "outputs": [],
      "payable": false,
      "stateMutability": "nonpayable",
      "type": "function"
    }
  ],
  "bytecode": "0x6080604052600080556000600255600060045534801561001e57600080fd5b5033600760006101000a81548173ffffffffffffffffffffffffffffffffffffffff021916908373ffffffffffffffffffffffffffffffffffffffff1602179055506006600760009054906101000a900473ffffffffffffffffffffffffffffffffffffffff1690806001815401808255809150509060018203906000526020600020016000909192909190916101000a81548173ffffffffffffffffffffffffffffffffffffffff021916908373ffffffffffffffffffffffffffffffffffffffff16021790555050611dc3806100f76000396000f3fe608060405234801561001057600080fd5b50600436106100ea5760003560e01c80638fa1c1841161008c578063c58343ef11610066578063c58343ef1461024f578063d0baa2b114610283578063e541c71e146102a1578063f88af21d146102bf576100ea565b80638fa1c184146101cd5780639bd99ce2146101eb578063b55e49a01461021f576100ea565b806344786fc3116100c857806344786fc31461014357806358be05011461015f5780635badbe4c1461019357806370b5fa02146101b1576100ea565b8063119850c7146100ef5780632cab69bc1461010b578063312c084814610127575b600080fd5b6101096004803603610104919081019061158e565b6102f0565b005b610125600480360361012091908101906116c8565b610447565b005b610141600480360361013c9190810190611621565b6105b4565b005b61015d60048036036101589190810190611781565b610721565b005b61017960048036036101749190810190611781565b6109ca565b60405161018a959493929190611ac1565b60405180910390f35b61019b610b5d565b6040516101a89190611b62565b60405180910390f35b6101cb60048036036101c6919081019061153a565b610b63565b005b6101d5610c95565b6040516101e29190611a84565b60405180910390f35b61020560048036036102009190810190611781565b610d23565b604051610216959493929190611a23565b60405180910390f35b61023960048036036102349190810190611511565b610f2f565b6040516102469190611aa6565b60405180910390f35b61026960048036036102649190810190611781565b610fcd565b60405161027a959493929190611b7d565b60405180910390f35b61028b61122a565b6040516102989190611b62565b60405180910390f35b6102a9611230565b6040516102b69190611b62565b60405180910390f35b6102d960048036036102d49190810190611781565b611236565b6040516102e79291906119f3565b60405180910390f35b6003604051806060016040528060025481526020018381526020016040518060a001604052808781526020018681526020018873ffffffffffffffffffffffffffffffffffffffff16815260200160008152602001600081525081525090806001815401808255809150509060018203906000526020600020906007020160009091929091909150600082015181600001556020820151816001015560408201518160020160008201518160000190805190602001906103b192919061131f565b5060208201518160010190805190602001906103ce92919061131f565b5060408201518160020160006101000a81548173ffffffffffffffffffffffffffffffffffffffff021916908373ffffffffffffffffffffffffffffffffffffffff1602179055506060820151816003015560808201518160040155505050505060026000815480929190600101919050555050505050565b61045033610f2f565b61048f576040517f08c379a000000000000000000000000000000000000000000000000000000000815260040161048690611b42565b60405180910390fd5b60056040518060a001604052808781526020018681526020018873ffffffffffffffffffffffffffffffffffffffff1681526020018481526020018381525090806001815401808255809150509060018203906000526020600020906005020160009091929091909150600082015181600001908051906020019061051592919061131f565b50602082015181600101908051906020019061053292919061131f565b5060408201518160020160006101000a81548173ffffffffffffffffffffffffffffffffffffffff021916908373ffffffffffffffffffffffffffffffffffffffff16021790555060608201518160030155608082015181600401555050506004600081548092919060010191905055506105ac83610721565b505050505050565b6105bd33610f2f565b6105fc576040517f08c379a00000000000000000000000000000000000000000000000000000000081526004016105f390611b42565b60405180910390fd5b60056040518060a001604052808581526020018681526020018773ffffffffffffffffffffffffffffffffffffffff1681526020018481526020018381525090806001815401808255809150509060018203906000526020600020906005020160009091929091909150600082015181600001908051906020019061068292919061131f565b50602082015181600101908051906020019061069f92919061131f565b5060408201518160020160006101000a81548173ffffffffffffffffffffffffffffffffffffffff021916908373ffffffffffffffffffffffffffffffffffffffff160217905550606082015181600301556080820151816004015550505060046000815480929190600101919050555061071a8584610b63565b5050505050565b61072a33610f2f565b610769576040517f08c379a000000000000000000000000000000000000000000000000000000000815260040161076090611b42565b60405180910390fd5b60025481106107ad576040517f08c379a00000000000000000000000000000000000000000000000000000000081526004016107a490611b22565b60405180910390fd5b60008190505b60016002540381101561092157600360018201815481106107d057fe5b9060005260206000209060070201600382815481106107eb57fe5b9060005260206000209060070201600082015481600001556001820154816001015560028201816002016000820181600001908054600181600116156101000203166002900461083c92919061139f565b506001820181600101908054600181600116156101000203166002900461086492919061139f565b506002820160009054906101000a900473ffffffffffffffffffffffffffffffffffffffff168160020160006101000a81548173ffffffffffffffffffffffffffffffffffffffff021916908373ffffffffffffffffffffffffffffffffffffffff16021790555060038201548160030155600482015481600401555050905050600381815481106108f257fe5b9060005260206000209060070201600001600081548092919060019003919050555080806001019150506107b3565b50600380548061092d57fe5b6001900381819060005260206000209060070201600080820160009055600182016000905560028201600080820160006109679190611426565b6001820160006109779190611426565b6002820160006101000a81549073ffffffffffffffffffffffffffffffffffffffff0219169055600382016000905560048201600090555050505090556002600081548092919060019003919050555050565b600581815481106109d757fe5b9060005260206000209060050201600091509050806000018054600181600116156101000203166002900480601f016020809104026020016040519081016040528092919081815260200182805460018160011615610100020316600290048015610a835780601f10610a5857610100808354040283529160200191610a83565b820191906000526020600020905b815481529060010190602001808311610a6657829003601f168201915b505050505090806001018054600181600116156101000203166002900480601f016020809104026020016040519081016040528092919081815260200182805460018160011615610100020316600290048015610b215780601f10610af657610100808354040283529160200191610b21565b820191906000526020600020905b815481529060010190602001808311610b0457829003601f168201915b5050505050908060020160009054906101000a900473ffffffffffffffffffffffffffffffffffffffff16908060030154908060040154905085565b60025481565b610b6c33610f2f565b610bab576040517f08c379a0000000000000000000000000000000000000000000000000000000008152600401610ba290611b42565b60405180910390fd5b60008090505b600254811015610c90578273ffffffffffffffffffffffffffffffffffffffff1660038281548110610bdf57fe5b906000526020600020906007020160020160020160009054906101000a900473ffffffffffffffffffffffffffffffffffffffff1673ffffffffffffffffffffffffffffffffffffffff161415610c8357818051906020012060038281548110610c4557fe5b9060005260206000209060070201600201600001604051610c6691906119dc565b60405180910390201415610c8257610c7d81610721565b610c90565b5b8080600101915050610bb1565b505050565b60606006805480602002602001604051908101604052809291908181526020018280548015610d1957602002820191906000526020600020905b8160009054906101000a900473ffffffffffffffffffffffffffffffffffffffff1673ffffffffffffffffffffffffffffffffffffffff1681526020019060010190808311610ccf575b5050505050905090565b600060608060008060058681548110610d3857fe5b906000526020600020906005020160020160009054906101000a900473ffffffffffffffffffffffffffffffffffffffff1660058781548110610d7757fe5b906000526020600020906005020160000160058881548110610d9557fe5b906000526020600020906005020160010160058981548110610db357fe5b90600052602060002090600502016003015460058a81548110610dd257fe5b906000526020600020906005020160040154838054600181600116156101000203166002900480601f016020809104026020016040519081016040528092919081815260200182805460018160011615610100020316600290048015610e795780601f10610e4e57610100808354040283529160200191610e79565b820191906000526020600020905b815481529060010190602001808311610e5c57829003601f168201915b50505050509350828054600181600116156101000203166002900480601f016020809104026020016040519081016040528092919081815260200182805460018160011615610100020316600290048015610f155780601f10610eea57610100808354040283529160200191610f15565b820191906000526020600020905b815481529060010190602001808311610ef857829003601f168201915b505050505092509450945094509450945091939590929450565b6000805b600680549050811015610fc25760068181548110610f4d57fe5b9060005260206000200160009054906101000a900473ffffffffffffffffffffffffffffffffffffffff1673ffffffffffffffffffffffffffffffffffffffff168373ffffffffffffffffffffffffffffffffffffffff161415610fb5576001915050610fc8565b8080600101915050610f33565b50600090505b919050565b6000806060806000610fde33610f2f565b61101d576040517f08c379a000000000000000000000000000000000000000000000000000000000815260040161101490611b42565b60405180910390fd5b6003868154811061102a57fe5b9060005260206000209060070201600001546003878154811061104957fe5b906000526020600020906007020160020160020160009054906101000a900473ffffffffffffffffffffffffffffffffffffffff166003888154811061108b57fe5b9060005260206000209060070201600201600001600389815481106110ac57fe5b906000526020600020906007020160020160010160038a815481106110cd57fe5b906000526020600020906007020160010154828054600181600116156101000203166002900480601f0160208091040260200160405190810160405280929190818152602001828054600181600116156101000203166002900480156111745780601f1061114957610100808354040283529160200191611174565b820191906000526020600020905b81548152906001019060200180831161115757829003601f168201915b50505050509250818054600181600116156101000203166002900480601f0160208091040260200160405190810160405280929190818152602001828054600181600116156101000203166002900480156112105780601f106111e557610100808354040283529160200191611210565b820191906000526020600020905b8154815290600101906020018083116111f357829003601f168201915b505050505091509450945094509450945091939590929450565b60045481565b60005481565b6001818154811061124357fe5b90600052602060002090600202016000915090508060000160009054906101000a900473ffffffffffffffffffffffffffffffffffffffff1690806001018054600181600116156101000203166002900480601f0160208091040260200160405190810160405280929190818152602001828054600181600116156101000203166002900480156113155780601f106112ea57610100808354040283529160200191611315565b820191906000526020600020905b8154815290600101906020018083116112f857829003601f168201915b5050505050905082565b828054600181600116156101000203166002900490600052602060002090601f016020900481019282601f1061136057805160ff191683800117855561138e565b8280016001018555821561138e579182015b8281111561138d578251825591602001919060010190611372565b5b50905061139b919061146e565b5090565b828054600181600116156101000203166002900490600052602060002090601f016020900481019282601f106113d85780548555611415565b8280016001018555821561141557600052602060002091601f016020900482015b828111156114145782548255916001019190600101906113f9565b5b509050611422919061146e565b5090565b50805460018160011615610100020316600290046000825580601f1061144c575061146b565b601f01602090049060005260206000209081019061146a919061146e565b5b50565b61149091905b8082111561148c576000816000905550600101611474565b5090565b90565b6000813590506114a281611d52565b92915050565b600082601f8301126114b957600080fd5b81356114cc6114c782611c0b565b611bde565b915080825260208301602083018583830111156114e857600080fd5b6114f3838284611cff565b50505092915050565b60008135905061150b81611d69565b92915050565b60006020828403121561152357600080fd5b600061153184828501611493565b91505092915050565b6000806040838503121561154d57600080fd5b600061155b85828601611493565b925050602083013567ffffffffffffffff81111561157857600080fd5b611584858286016114a8565b9150509250929050565b600080600080608085870312156115a457600080fd5b60006115b287828801611493565b945050602085013567ffffffffffffffff8111156115cf57600080fd5b6115db878288016114a8565b935050604085013567ffffffffffffffff8111156115f857600080fd5b611604878288016114a8565b9250506060611615878288016114fc565b91505092959194509250565b600080600080600060a0868803121561163957600080fd5b600061164788828901611493565b955050602086013567ffffffffffffffff81111561166457600080fd5b611670888289016114a8565b945050604086013567ffffffffffffffff81111561168d57600080fd5b611699888289016114a8565b93505060606116aa888289016114fc565b92505060806116bb888289016114fc565b9150509295509295909350565b60008060008060008060c087890312156116e157600080fd5b60006116ef89828a01611493565b965050602087013567ffffffffffffffff81111561170c57600080fd5b61171889828a016114a8565b955050604087013567ffffffffffffffff81111561173557600080fd5b61174189828a016114a8565b945050606061175289828a016114fc565b935050608061176389828a016114fc565b92505060a061177489828a016114fc565b9150509295509295509295565b60006020828403121561179357600080fd5b60006117a1848285016114fc565b91505092915050565b60006117b683836117c2565b60208301905092915050565b6117cb81611cb7565b82525050565b6117da81611cb7565b82525050565b60006117eb82611c5c565b6117f58185611c8a565b935061180083611c37565b8060005b8381101561183157815161181888826117aa565b975061182383611c7d565b925050600181019050611804565b5085935050505092915050565b61184781611cc9565b82525050565b60008154600181166000811461186a576001811461188f576118d3565b607f600283041661187b8187611c9b565b955060ff19831686528086019350506118d3565b6002820461189d8187611c9b565b95506118a885611c47565b60005b828110156118ca578154818901526001820191506020810190506118ab565b82880195505050505b505092915050565b60006118e682611c72565b6118f08185611ca6565b9350611900818560208601611d0e565b61190981611d41565b840191505092915050565b600061191f82611c67565b6119298185611ca6565b9350611939818560208601611d0e565b61194281611d41565b840191505092915050565b600061195a600983611ca6565b91507f62616420696e64657800000000000000000000000000000000000000000000006000830152602082019050919050565b600061199a601683611ca6565b91507f63616c6c6572206973206e6f74206120646f63746f72000000000000000000006000830152602082019050919050565b6119d681611cf5565b82525050565b60006119e8828461184d565b915081905092915050565b6000604082019050611a0860008301856117d1565b8181036020830152611a1a8184611914565b90509392505050565b600060a082019050611a3860008301886117d1565b8181036020830152611a4a81876118db565b90508181036040830152611a5e81866118db565b9050611a6d60608301856119cd565b611a7a60808301846119cd565b9695505050505050565b60006020820190508181036000830152611a9e81846117e0565b905092915050565b6000602082019050611abb600083018461183e565b92915050565b600060a0820190508181036000830152611adb8188611914565b90508181036020830152611aef8187611914565b9050611afe60408301866117d1565b611b0b60608301856119cd565b611b1860808301846119cd565b9695505050505050565b60006020820190508181036000830152611b3b8161194d565b9050919050565b60006020820190508181036000830152611b5b8161198d565b9050919050565b6000602082019050611b7760008301846119cd565b92915050565b600060a082019050611b9260008301886119cd565b611b9f60208301876117d1565b8181036040830152611bb181866118db565b90508181036060830152611bc581856118db565b9050611bd460808301846119cd565b9695505050505050565b6000604051905081810181811067ffffffffffffffff82111715611c0157600080fd5b8060405250919050565b600067ffffffffffffffff821115611c2257600080fd5b601f19601f8301169050602081019050919050565b6000819050602082019050919050565b60008190508160005260206000209050919050565b600081519050919050565b600081519050919050565b600081519050919050565b6000602082019050919050565b600082825260208201905092915050565b600081905092915050565b600082825260208201905092915050565b6000611cc282611cd5565b9050919050565b60008115159050919050565b600073ffffffffffffffffffffffffffffffffffffffff82169050919050565b6000819050919050565b82818337600083830152505050565b60005b83811015611d2c578082015181840152602081019050611d11565b83811115611d3b576000848401525b50505050565b6000601f19601f8301169050919050565b611d5b81611cb7565b8114611d6657600080fd5b50565b611d7281611cf5565b8114611d7d57600080fd5b5056fea365627a7a7231582062a767a4a454f95f92a52d302b973b532ef2d5e35ebddf64c88abdb44ea5d28c6c6578706572696d656e74616cf564736f6c63430005100040",
  "source": "// SPDX-License-Identifier: MIT\r\npragma solidity >=0.4.22 <0.9.0;\r\npragma experimental ABIEncoderV2;\r\n\r\ncontract ClientContract {\r\n    \r\n    struct Client {\r\n        address _client_id;\r\n        string _client_name;\r\n    }\r\n\r\n    struct Perscription {\r\n        string _drug_id;\r\n        string _drug_name;\r\n        address _client_id;\r\n        uint256 _givenDate;\r\n        uint256 _expiredDate;\r\n    }\r\n\r\n    struct Request {\r\n        uint _request_number;\r\n        uint256 _requestDate;\r\n        Perscription _perscription;\r\n    }\r\n        \r\n    uint public clientCount = 0;\r\n    Client[] public clients;\r\n    \r\n    uint public requestCount = 0;\r\n    Request[] requests;\r\n    \r\n    \r\n    uint public perscriptionCount = 0;\r\n    Perscription[] public perscriptions;\r\n    \r\n    address[] private permitted;\r\n    address owner;\r\n    \r\n    \r\n    function onlyPermittedDoctor(address sender) public view returns(bool){\r\n        for(uint i; i < permitted.length; i++){\r\n            if(sender == permitted[i]){\r\n                return true;\r\n            }\r\n        }\r\n        return false;\r\n    }\r\n\r\n    modifier isDoctor(){\r\n        require(onlyPermittedDoctor(msg.sender), 'caller is not a doctor');\r\n        _;\r\n    }\r\n\r\n    constructor() public {\r\n        owner = msg.sender;\r\n        permitted.push(owner);\r\n    }\r\n    \r\n    function getPermittedList() public view returns(address[] memory) {\r\n        return permitted;\r\n    }\r\n    \r\n    function getPerscription(uint index) public view returns(address, string memory, string memory, uint256, uint256) {\r\n        return (perscriptions[index]._client_id, perscriptions[index]._drug_id, perscriptions[index]._drug_name, perscriptions[index]._givenDate, perscriptions[index]._expiredDate);\r\n    }\r\n    \r\n    function requestPerscription(address _client_id, string memory _drug_id, string memory _drug_name, uint256 _requestDate) public {\r\n        requests.push(Request(requestCount, _requestDate, Perscription(_drug_id, _drug_name, _client_id, 0, 0)));\r\n        requestCount++;\r\n    }\r\n\r\n    function getRequest(uint index) public view isDoctor returns(uint, address, string memory, string memory, uint256) {\r\n        return (requests[index]._request_number, requests[index]._perscription._client_id, requests[index]._perscription._drug_id, requests[index]._perscription._drug_name, requests[index]._requestDate);\r\n    }\r\n\r\n    function givePerscriptionWithIndex(address _client_id, string memory _drug_id, string memory _drug_name, uint _index, uint256 _givenDate, uint256 _expiredDate) public isDoctor {\r\n        perscriptions.push(Perscription(_drug_id, _drug_name, _client_id, _givenDate, _expiredDate));\r\n        perscriptionCount++;\r\n        removeRequest(_index);\r\n    }\r\n    \r\n    function givePerscriptionWithoutIndex(address _client_id, string memory _drug_name, string memory _drug_id, uint256 _givenDate, uint256 _expiredDate) public isDoctor {\r\n        perscriptions.push(Perscription(_drug_id, _drug_name, _client_id, _givenDate, _expiredDate));\r\n        perscriptionCount++;\r\n        removeRequestWithoutIndex(_client_id, _drug_id);\r\n    }\r\n    \r\n    function removeRequest(uint index) public isDoctor {\r\n        if (index >= requestCount) revert('bad index');\r\n        \r\n        for (uint i = index; i < requestCount-1; i++){\r\n            requests[i] = requests[i+1];\r\n            requests[i]._request_number--;\r\n        }\r\n        requests.pop();\r\n        requestCount--;\r\n    }\r\n    \r\n    function removeRequestWithoutIndex(address _client_id, string memory _drug_id) public isDoctor {\r\n        for (uint i = 0; i < requestCount; i++) {\r\n            if (requests[i]._perscription._client_id == _client_id) {\r\n                if (keccak256(bytes(requests[i]._perscription._drug_id)) == keccak256(bytes(_drug_id))) {\r\n                    removeRequest(i);\r\n                    break;\r\n                }\r\n            }\r\n        }\r\n    }\r\n}",
  "sourcePath": "C:/dev/eth-prescriptions/contracts/ClientContract.sol",
  "compiler": {
    "name": "solc",
    "version": "0.5.16+commit.9c3226ce.Emscripten.clang"
  },
  "schemaVersion": "3.3.3",
  "updatedAt": "2021-02-28T11:22:46.083Z",
  "devdoc": {
    "methods": {}
  },
  "userdoc": {
    "methods": {}
  }
}