{
  "contractName": "ClientContract",
  "abi": [
    {
      "inputs": [],
      "payable": false,
      "stateMutability": "nonpayable",
      "type": "constructor"
    },
    {
      "constant": true,
      "inputs": [],
      "name": "clientCount",
      "outputs": [
        {
          "internalType": "uint256",
          "name": "",
          "type": "uint256"
        }
      ],
      "payable": false,
      "stateMutability": "view",
      "type": "function"
    },
    {
      "constant": true,
      "inputs": [
        {
          "internalType": "uint256",
          "name": "",
          "type": "uint256"
        }
      ],
      "name": "clients",
      "outputs": [
        {
          "internalType": "address",
          "name": "_client_id",
          "type": "address"
        },
        {
          "internalType": "string",
          "name": "_client_name",
          "type": "string"
        }
      ],
      "payable": false,
      "stateMutability": "view",
      "type": "function"
    },
    {
      "constant": true,
      "inputs": [],
      "name": "perscriptionCount",
      "outputs": [
        {
          "internalType": "uint256",
          "name": "",
          "type": "uint256"
        }
      ],
      "payable": false,
      "stateMutability": "view",
      "type": "function"
    },
    {
      "constant": true,
      "inputs": [],
      "name": "requestCount",
      "outputs": [
        {
          "internalType": "uint256",
          "name": "",
          "type": "uint256"
        }
      ],
      "payable": false,
      "stateMutability": "view",
      "type": "function"
    },
    {
      "constant": false,
      "inputs": [
        {
          "internalType": "address",
          "name": "_client_id",
          "type": "address"
        },
        {
          "internalType": "string",
          "name": "_client_name",
          "type": "string"
        }
      ],
      "name": "addClient",
      "outputs": [],
      "payable": false,
      "stateMutability": "nonpayable",
      "type": "function"
    },
    {
      "constant": true,
      "inputs": [
        {
          "internalType": "uint256",
          "name": "index",
          "type": "uint256"
        }
      ],
      "name": "getClient",
      "outputs": [
        {
          "internalType": "address",
          "name": "",
          "type": "address"
        },
        {
          "internalType": "string",
          "name": "",
          "type": "string"
        }
      ],
      "payable": false,
      "stateMutability": "view",
      "type": "function"
    },
    {
      "constant": true,
      "inputs": [
        {
          "internalType": "uint256",
          "name": "index",
          "type": "uint256"
        }
      ],
      "name": "getPerscription",
      "outputs": [
        {
          "internalType": "address",
          "name": "",
          "type": "address"
        },
        {
          "internalType": "string",
          "name": "",
          "type": "string"
        },
        {
          "internalType": "string",
          "name": "",
          "type": "string"
        }
      ],
      "payable": false,
      "stateMutability": "view",
      "type": "function"
    },
    {
      "constant": false,
      "inputs": [
        {
          "internalType": "address",
          "name": "_client_id",
          "type": "address"
        },
        {
          "internalType": "string",
          "name": "_drug_id",
          "type": "string"
        },
        {
          "internalType": "string",
          "name": "_drug_name",
          "type": "string"
        }
      ],
      "name": "requestPerscription",
      "outputs": [],
      "payable": false,
      "stateMutability": "nonpayable",
      "type": "function"
    },
    {
      "constant": true,
      "inputs": [
        {
          "internalType": "uint256",
          "name": "index",
          "type": "uint256"
        }
      ],
      "name": "getRequest",
      "outputs": [
        {
          "internalType": "uint256",
          "name": "",
          "type": "uint256"
        },
        {
          "internalType": "address",
          "name": "",
          "type": "address"
        },
        {
          "internalType": "string",
          "name": "",
          "type": "string"
        },
        {
          "internalType": "string",
          "name": "",
          "type": "string"
        }
      ],
      "payable": false,
      "stateMutability": "view",
      "type": "function"
    },
    {
      "constant": false,
      "inputs": [
        {
          "internalType": "address",
          "name": "_client_id",
          "type": "address"
        },
        {
          "internalType": "string",
          "name": "_drug_id",
          "type": "string"
        },
        {
          "internalType": "string",
          "name": "_drug_name",
          "type": "string"
        },
        {
          "internalType": "uint256",
          "name": "_index",
          "type": "uint256"
        }
      ],
      "name": "givePerscriptionWithIndex",
      "outputs": [],
      "payable": false,
      "stateMutability": "nonpayable",
      "type": "function"
    },
    {
      "constant": false,
      "inputs": [
        {
          "internalType": "address",
          "name": "_client_id",
          "type": "address"
        },
        {
          "internalType": "string",
          "name": "_drug_name",
          "type": "string"
        },
        {
          "internalType": "string",
          "name": "_drug_id",
          "type": "string"
        }
      ],
      "name": "givePerscriptionWithoutIndex",
      "outputs": [],
      "payable": false,
      "stateMutability": "nonpayable",
      "type": "function"
    },
    {
      "constant": false,
      "inputs": [
        {
          "internalType": "uint256",
          "name": "index",
          "type": "uint256"
        }
      ],
      "name": "removeRequest",
      "outputs": [],
      "payable": false,
      "stateMutability": "nonpayable",
      "type": "function"
    },
    {
      "constant": false,
      "inputs": [
        {
          "internalType": "address",
          "name": "_client_id",
          "type": "address"
        },
        {
          "internalType": "string",
          "name": "_drug_id",
          "type": "string"
        }
      ],
      "name": "removeRequestWithoutIndex",
      "outputs": [],
      "payable": false,
      "stateMutability": "nonpayable",
      "type": "function"
    }
  ],
  "bytecode": "0x6080604052600080556000600255600060045534801561001e57600080fd5b5033600660006101000a81548173ffffffffffffffffffffffffffffffffffffffff021916908373ffffffffffffffffffffffffffffffffffffffff16021790555061193c8061006f6000396000f3fe608060405234801561001057600080fd5b50600436106100cf5760003560e01c8063c58343ef1161008c578063e292ec0811610066578063e292ec0814610216578063e541c71e14610232578063f69959f014610250578063f88af21d1461026c576100cf565b8063c58343ef14610194578063d0068f80146101c7578063d0baa2b1146101f8576100cf565b80633015c987146100d457806344786fc3146100f05780635badbe4c1461010c57806370b5fa021461012a5780639bd99ce214610146578063bc6dee4f14610178575b600080fd5b6100ee60048036036100e991908101906113b9565b61029d565b005b61010a600480360361010591908101906114cb565b6103a0565b005b610114610628565b604051610121919061172e565b60405180910390f35b610144600480360361013f9190810190611365565b61062e565b005b610160600480360361015b91908101906114cb565b6107a8565b60405161016f939291906116c9565b60405180910390f35b610192600480360361018d9190810190611438565b61096d565b005b6101ae60048036036101a991908101906114cb565b610a70565b6040516101be9493929190611749565b60405180910390f35b6101e160048036036101dc91908101906114cb565b610cf0565b6040516101ef929190611699565b60405180910390f35b610200610e86565b60405161020d919061172e565b60405180910390f35b610230600480360361022b9190810190611365565b610e8c565b005b61023a610f60565b604051610247919061172e565b60405180910390f35b61026a600480360361026591908101906113b9565b610f66565b005b610286600480360361028191908101906114cb565b61108a565b604051610294929190611669565b60405180910390f35b600560405180606001604052808381526020018481526020018573ffffffffffffffffffffffffffffffffffffffff16815250908060018154018082558091505090600182039060005260206000209060030201600090919290919091506000820151816000019080519060200190610317929190611173565b506020820151816001019080519060200190610334929190611173565b5060408201518160020160006101000a81548173ffffffffffffffffffffffffffffffffffffffff021916908373ffffffffffffffffffffffffffffffffffffffff16021790555050505060046000815480929190600101919050555061039b838261062e565b505050565b600660009054906101000a900473ffffffffffffffffffffffffffffffffffffffff1673ffffffffffffffffffffffffffffffffffffffff163373ffffffffffffffffffffffffffffffffffffffff1614610430576040517f08c379a00000000000000000000000000000000000000000000000000000000081526004016104279061170e565b60405180910390fd5b600254811061043e57610625565b60008190505b600160025403811015610594576003600182018154811061046157fe5b90600052602060002090600402016003828154811061047c57fe5b9060005260206000209060040201600082015481600001556001820181600101600082018160000190805460018160011615610100020316600290046104c39291906111f3565b50600182018160010190805460018160011615610100020316600290046104eb9291906111f3565b506002820160009054906101000a900473ffffffffffffffffffffffffffffffffffffffff168160020160006101000a81548173ffffffffffffffffffffffffffffffffffffffff021916908373ffffffffffffffffffffffffffffffffffffffff16021790555050509050506003818154811061056557fe5b906000526020600020906004020160000160008154809291906001900391905055508080600101915050610444565b506003600160038054905003815481106105aa57fe5b906000526020600020906004020160008082016000905560018201600080820160006105d6919061127a565b6001820160006105e6919061127a565b6002820160006101000a81549073ffffffffffffffffffffffffffffffffffffffff021916905550505050600260008154809291906001900391905055505b50565b60025481565b600660009054906101000a900473ffffffffffffffffffffffffffffffffffffffff1673ffffffffffffffffffffffffffffffffffffffff163373ffffffffffffffffffffffffffffffffffffffff16146106be576040517f08c379a00000000000000000000000000000000000000000000000000000000081526004016106b59061170e565b60405180910390fd5b60008090505b6002548110156107a3578273ffffffffffffffffffffffffffffffffffffffff16600382815481106106f257fe5b906000526020600020906004020160010160020160009054906101000a900473ffffffffffffffffffffffffffffffffffffffff1673ffffffffffffffffffffffffffffffffffffffff1614156107965781805190602001206003828154811061075857fe5b90600052602060002090600402016001016000016040516107799190611652565b6040518091039020141561079557610790816103a0565b6107a3565b5b80806001019150506106c4565b505050565b6000606080600584815481106107ba57fe5b906000526020600020906003020160020160009054906101000a900473ffffffffffffffffffffffffffffffffffffffff16600585815481106107f957fe5b90600052602060002090600302016000016005868154811061081757fe5b9060005260206000209060030201600101818054600181600116156101000203166002900480601f0160208091040260200160405190810160405280929190818152602001828054600181600116156101000203166002900480156108bd5780601f10610892576101008083540402835291602001916108bd565b820191906000526020600020905b8154815290600101906020018083116108a057829003601f168201915b50505050509150808054600181600116156101000203166002900480601f0160208091040260200160405190810160405280929190818152602001828054600181600116156101000203166002900480156109595780601f1061092e57610100808354040283529160200191610959565b820191906000526020600020905b81548152906001019060200180831161093c57829003601f168201915b505050505090509250925092509193909250565b600560405180606001604052808581526020018481526020018673ffffffffffffffffffffffffffffffffffffffff168152509080600181540180825580915050906001820390600052602060002090600302016000909192909190915060008201518160000190805190602001906109e7929190611173565b506020820151816001019080519060200190610a04929190611173565b5060408201518160020160006101000a81548173ffffffffffffffffffffffffffffffffffffffff021916908373ffffffffffffffffffffffffffffffffffffffff160217905550505050600460008154809291906001019190505550610a6a816103a0565b50505050565b600080606080600660009054906101000a900473ffffffffffffffffffffffffffffffffffffffff1673ffffffffffffffffffffffffffffffffffffffff163373ffffffffffffffffffffffffffffffffffffffff1614610b06576040517f08c379a0000000000000000000000000000000000000000000000000000000008152600401610afd9061170e565b60405180910390fd5b60038581548110610b1357fe5b90600052602060002090600402016000015460038681548110610b3257fe5b906000526020600020906004020160010160020160009054906101000a900473ffffffffffffffffffffffffffffffffffffffff1660038781548110610b7457fe5b906000526020600020906004020160010160000160038881548110610b9557fe5b9060005260206000209060040201600101600101818054600181600116156101000203166002900480601f016020809104026020016040519081016040528092919081815260200182805460018160011615610100020316600290048015610c3e5780601f10610c1357610100808354040283529160200191610c3e565b820191906000526020600020905b815481529060010190602001808311610c2157829003601f168201915b50505050509150808054600181600116156101000203166002900480601f016020809104026020016040519081016040528092919081815260200182805460018160011615610100020316600290048015610cda5780601f10610caf57610100808354040283529160200191610cda565b820191906000526020600020905b815481529060010190602001808311610cbd57829003601f168201915b5050505050905093509350935093509193509193565b60006060600660009054906101000a900473ffffffffffffffffffffffffffffffffffffffff1673ffffffffffffffffffffffffffffffffffffffff163373ffffffffffffffffffffffffffffffffffffffff1614610d84576040517f08c379a0000000000000000000000000000000000000000000000000000000008152600401610d7b9061170e565b60405180910390fd5b60018381548110610d9157fe5b906000526020600020906002020160000160009054906101000a900473ffffffffffffffffffffffffffffffffffffffff1660018481548110610dd057fe5b9060005260206000209060020201600101808054600181600116156101000203166002900480601f016020809104026020016040519081016040528092919081815260200182805460018160011615610100020316600290048015610e765780601f10610e4b57610100808354040283529160200191610e76565b820191906000526020600020905b815481529060010190602001808311610e5957829003601f168201915b5050505050905091509150915091565b60045481565b600160405180604001604052808473ffffffffffffffffffffffffffffffffffffffff168152602001838152509080600181540180825580915050906001820390600052602060002090600202016000909192909190915060008201518160000160006101000a81548173ffffffffffffffffffffffffffffffffffffffff021916908373ffffffffffffffffffffffffffffffffffffffff1602179055506020820151816001019080519060200190610f47929190611173565b5050505060008081548092919060010191905055505050565b60005481565b60036040518060400160405280600254815260200160405180606001604052808681526020018581526020018773ffffffffffffffffffffffffffffffffffffffff1681525081525090806001815401808255809150509060018203906000526020600020906004020160009091929091909150600082015181600001556020820151816001016000820151816000019080519060200190611009929190611173565b506020820151816001019080519060200190611026929190611173565b5060408201518160020160006101000a81548173ffffffffffffffffffffffffffffffffffffffff021916908373ffffffffffffffffffffffffffffffffffffffff1602179055505050505050600260008154809291906001019190505550505050565b6001818154811061109757fe5b90600052602060002090600202016000915090508060000160009054906101000a900473ffffffffffffffffffffffffffffffffffffffff1690806001018054600181600116156101000203166002900480601f0160208091040260200160405190810160405280929190818152602001828054600181600116156101000203166002900480156111695780601f1061113e57610100808354040283529160200191611169565b820191906000526020600020905b81548152906001019060200180831161114c57829003601f168201915b5050505050905082565b828054600181600116156101000203166002900490600052602060002090601f016020900481019282601f106111b457805160ff19168380011785556111e2565b828001600101855582156111e2579182015b828111156111e15782518255916020019190600101906111c6565b5b5090506111ef91906112c2565b5090565b828054600181600116156101000203166002900490600052602060002090601f016020900481019282601f1061122c5780548555611269565b8280016001018555821561126957600052602060002091601f016020900482015b8281111561126857825482559160010191906001019061124d565b5b50905061127691906112c2565b5090565b50805460018160011615610100020316600290046000825580601f106112a057506112bf565b601f0160209004906000526020600020908101906112be91906112c2565b5b50565b6112e491905b808211156112e05760008160009055506001016112c8565b5090565b90565b6000813590506112f6816118cb565b92915050565b600082601f83011261130d57600080fd5b813561132061131b826117c9565b61179c565b9150808252602083016020830185838301111561133c57600080fd5b611347838284611878565b50505092915050565b60008135905061135f816118e2565b92915050565b6000806040838503121561137857600080fd5b6000611386858286016112e7565b925050602083013567ffffffffffffffff8111156113a357600080fd5b6113af858286016112fc565b9150509250929050565b6000806000606084860312156113ce57600080fd5b60006113dc868287016112e7565b935050602084013567ffffffffffffffff8111156113f957600080fd5b611405868287016112fc565b925050604084013567ffffffffffffffff81111561142257600080fd5b61142e868287016112fc565b9150509250925092565b6000806000806080858703121561144e57600080fd5b600061145c878288016112e7565b945050602085013567ffffffffffffffff81111561147957600080fd5b611485878288016112fc565b935050604085013567ffffffffffffffff8111156114a257600080fd5b6114ae878288016112fc565b92505060606114bf87828801611350565b91505092959194509250565b6000602082840312156114dd57600080fd5b60006114eb84828501611350565b91505092915050565b6114fd8161183c565b82525050565b600081546001811660008114611520576001811461154557611589565b607f60028304166115318187611820565b955060ff1983168652808601935050611589565b600282046115538187611820565b955061155e856117f5565b60005b8281101561158057815481890152600182019150602081019050611561565b82880195505050505b505092915050565b600061159c82611815565b6115a6818561182b565b93506115b6818560208601611887565b6115bf816118ba565b840191505092915050565b60006115d58261180a565b6115df818561182b565b93506115ef818560208601611887565b6115f8816118ba565b840191505092915050565b600061161060168361182b565b91507f63616c6c6572206973206e6f74206120646f63746f72000000000000000000006000830152602082019050919050565b61164c8161186e565b82525050565b600061165e8284611503565b915081905092915050565b600060408201905061167e60008301856114f4565b818103602083015261169081846115ca565b90509392505050565b60006040820190506116ae60008301856114f4565b81810360208301526116c08184611591565b90509392505050565b60006060820190506116de60008301866114f4565b81810360208301526116f08185611591565b905081810360408301526117048184611591565b9050949350505050565b6000602082019050818103600083015261172781611603565b9050919050565b60006020820190506117436000830184611643565b92915050565b600060808201905061175e6000830187611643565b61176b60208301866114f4565b818103604083015261177d8185611591565b905081810360608301526117918184611591565b905095945050505050565b6000604051905081810181811067ffffffffffffffff821117156117bf57600080fd5b8060405250919050565b600067ffffffffffffffff8211156117e057600080fd5b601f19601f8301169050602081019050919050565b60008190508160005260206000209050919050565b600081519050919050565b600081519050919050565b600081905092915050565b600082825260208201905092915050565b60006118478261184e565b9050919050565b600073ffffffffffffffffffffffffffffffffffffffff82169050919050565b6000819050919050565b82818337600083830152505050565b60005b838110156118a557808201518184015260208101905061188a565b838111156118b4576000848401525b50505050565b6000601f19601f8301169050919050565b6118d48161183c565b81146118df57600080fd5b50565b6118eb8161186e565b81146118f657600080fd5b5056fea365627a7a72315820ffa5abff56a2e97b13f61d09a90b5fa7bf0c8aa85701655d23ec94bce4bf91cc6c6578706572696d656e74616cf564736f6c63430005100040",
  "source": "// SPDX-License-Identifier: MIT\r\npragma solidity >=0.4.22 <0.9.0;\r\npragma experimental ABIEncoderV2;\r\n\r\ncontract ClientContract {\r\n    \r\n    struct Client {\r\n        address _client_id;\r\n        string _client_name;\r\n    }\r\n\r\n    struct Perscription {\r\n        string _drug_id;\r\n        string _drug_name;\r\n        address _client_id;\r\n    }\r\n\r\n    struct Request {\r\n        uint _request_number;\r\n        Perscription _perscription;\r\n    }\r\n        \r\n    uint public clientCount = 0;\r\n    Client[] public clients;\r\n    \r\n    uint public requestCount = 0;\r\n    Request[] requests;\r\n    \r\n    uint public perscriptionCount = 0;\r\n    Perscription[] perscriptions;\r\n    \r\n    address owner;\r\n\r\n    modifier isDoctor() {\r\n        require(msg.sender == owner, \"caller is not a doctor\");\r\n        _;\r\n    }\r\n\r\n    constructor() public {\r\n        owner = msg.sender;\r\n    }\r\n\r\n    function addClient(address _client_id, string memory _client_name) public {\r\n        clients.push(Client(_client_id, _client_name));\r\n        clientCount++;\r\n    }\r\n\r\n    function getClient(uint index) public view isDoctor returns(address, string memory) {\r\n        return (clients[index]._client_id, clients[index]._client_name);\r\n    }\r\n    \r\n    function getPerscription(uint index) public view returns(address, string memory, string memory) {\r\n        return (perscriptions[index]._client_id, perscriptions[index]._drug_id, perscriptions[index]._drug_name);\r\n    }\r\n    \r\n    function requestPerscription(address _client_id, string memory _drug_id, string memory _drug_name) public {\r\n        requests.push(Request(requestCount, Perscription(_drug_id, _drug_name, _client_id)));\r\n        requestCount++;\r\n    }\r\n\r\n    function getRequest(uint index) public view isDoctor returns(uint, address, string memory, string memory)  {\r\n        return (requests[index]._request_number, requests[index]._perscription._client_id, requests[index]._perscription._drug_id, requests[index]._perscription._drug_name);\r\n    }\r\n\r\n    function givePerscriptionWithIndex(address _client_id, string memory _drug_id, string memory _drug_name, uint _index) public {\r\n        perscriptions.push(Perscription(_drug_id, _drug_name, _client_id));\r\n        perscriptionCount++;\r\n        removeRequest(_index);\r\n    }\r\n    \r\n    function givePerscriptionWithoutIndex(address _client_id, string memory _drug_name, string memory _drug_id) public {\r\n        perscriptions.push(Perscription(_drug_id, _drug_name, _client_id));\r\n        perscriptionCount++;\r\n        removeRequestWithoutIndex(_client_id, _drug_id);\r\n    }\r\n    \r\n    function removeRequest(uint index) public isDoctor {\r\n        if (index >= requestCount) return;\r\n        \r\n        for (uint i = index; i < requestCount-1; i++){\r\n            requests[i] = requests[i+1];\r\n            requests[i]._request_number--;\r\n        }\r\n        delete(requests[requests.length-1]);\r\n        requestCount--;\r\n    }\r\n    \r\n    function removeRequestWithoutIndex(address _client_id, string memory _drug_id) public isDoctor {\r\n        for (uint i = 0; i < requestCount; i++) {\r\n            if (requests[i]._perscription._client_id == _client_id) {\r\n                if (keccak256(bytes(requests[i]._perscription._drug_id)) == keccak256(bytes(_drug_id))) {\r\n                    removeRequest(i);\r\n                    break;\r\n                }\r\n            }\r\n        }\r\n    }\r\n}",
  "sourcePath": "C:/dev/eth-prescriptions/contracts/ClientContract.sol",
  "compiler": {
    "name": "solc",
    "version": "0.5.16+commit.9c3226ce.Emscripten.clang"
  },
  "schemaVersion": "3.3.3",
  "updatedAt": "2021-02-07T11:36:58.537Z",
  "networkType": "ethereum",
  "devdoc": {
    "methods": {}
  },
  "userdoc": {
    "methods": {}
  }
}