{
  "contractName": "ClientContract",
  "abi": [
    {
      "inputs": [],
      "payable": false,
      "stateMutability": "nonpayable",
      "type": "constructor"
    },
    {
      "constant": true,
      "inputs": [],
      "name": "clientCount",
      "outputs": [
        {
          "internalType": "uint256",
          "name": "",
          "type": "uint256"
        }
      ],
      "payable": false,
      "stateMutability": "view",
      "type": "function"
    },
    {
      "constant": true,
      "inputs": [
        {
          "internalType": "uint256",
          "name": "",
          "type": "uint256"
        }
      ],
      "name": "clients",
      "outputs": [
        {
          "internalType": "address",
          "name": "_client_id",
          "type": "address"
        },
        {
          "internalType": "string",
          "name": "_client_name",
          "type": "string"
        }
      ],
      "payable": false,
      "stateMutability": "view",
      "type": "function"
    },
    {
      "constant": true,
      "inputs": [],
      "name": "perscriptionCount",
      "outputs": [
        {
          "internalType": "uint256",
          "name": "",
          "type": "uint256"
        }
      ],
      "payable": false,
      "stateMutability": "view",
      "type": "function"
    },
    {
      "constant": true,
      "inputs": [
        {
          "internalType": "uint256",
          "name": "",
          "type": "uint256"
        }
      ],
      "name": "perscriptions",
      "outputs": [
        {
          "internalType": "string",
          "name": "_drug_id",
          "type": "string"
        },
        {
          "internalType": "string",
          "name": "_drug_name",
          "type": "string"
        },
        {
          "internalType": "address",
          "name": "_client_id",
          "type": "address"
        }
      ],
      "payable": false,
      "stateMutability": "view",
      "type": "function"
    },
    {
      "constant": true,
      "inputs": [],
      "name": "requestCount",
      "outputs": [
        {
          "internalType": "uint256",
          "name": "",
          "type": "uint256"
        }
      ],
      "payable": false,
      "stateMutability": "view",
      "type": "function"
    },
    {
      "constant": true,
      "inputs": [
        {
          "internalType": "address",
          "name": "sender",
          "type": "address"
        }
      ],
      "name": "onlyPermittedDoctor",
      "outputs": [
        {
          "internalType": "bool",
          "name": "",
          "type": "bool"
        }
      ],
      "payable": false,
      "stateMutability": "pure",
      "type": "function"
    },
    {
      "constant": false,
      "inputs": [
        {
          "internalType": "address",
          "name": "_client_id",
          "type": "address"
        },
        {
          "internalType": "string",
          "name": "_client_name",
          "type": "string"
        }
      ],
      "name": "addClient",
      "outputs": [],
      "payable": false,
      "stateMutability": "nonpayable",
      "type": "function"
    },
    {
      "constant": true,
      "inputs": [
        {
          "internalType": "uint256",
          "name": "index",
          "type": "uint256"
        }
      ],
      "name": "getClient",
      "outputs": [
        {
          "internalType": "address",
          "name": "",
          "type": "address"
        },
        {
          "internalType": "string",
          "name": "",
          "type": "string"
        }
      ],
      "payable": false,
      "stateMutability": "view",
      "type": "function"
    },
    {
      "constant": true,
      "inputs": [
        {
          "internalType": "uint256",
          "name": "index",
          "type": "uint256"
        }
      ],
      "name": "getPerscription",
      "outputs": [
        {
          "internalType": "address",
          "name": "",
          "type": "address"
        },
        {
          "internalType": "string",
          "name": "",
          "type": "string"
        },
        {
          "internalType": "string",
          "name": "",
          "type": "string"
        }
      ],
      "payable": false,
      "stateMutability": "view",
      "type": "function"
    },
    {
      "constant": false,
      "inputs": [
        {
          "internalType": "address",
          "name": "_client_id",
          "type": "address"
        },
        {
          "internalType": "string",
          "name": "_drug_id",
          "type": "string"
        },
        {
          "internalType": "string",
          "name": "_drug_name",
          "type": "string"
        }
      ],
      "name": "requestPerscription",
      "outputs": [],
      "payable": false,
      "stateMutability": "nonpayable",
      "type": "function"
    },
    {
      "constant": true,
      "inputs": [
        {
          "internalType": "uint256",
          "name": "index",
          "type": "uint256"
        }
      ],
      "name": "getRequest",
      "outputs": [
        {
          "internalType": "uint256",
          "name": "",
          "type": "uint256"
        },
        {
          "internalType": "address",
          "name": "",
          "type": "address"
        },
        {
          "internalType": "string",
          "name": "",
          "type": "string"
        },
        {
          "internalType": "string",
          "name": "",
          "type": "string"
        }
      ],
      "payable": false,
      "stateMutability": "view",
      "type": "function"
    },
    {
      "constant": false,
      "inputs": [
        {
          "internalType": "address",
          "name": "_client_id",
          "type": "address"
        },
        {
          "internalType": "string",
          "name": "_drug_id",
          "type": "string"
        },
        {
          "internalType": "string",
          "name": "_drug_name",
          "type": "string"
        },
        {
          "internalType": "uint256",
          "name": "_index",
          "type": "uint256"
        }
      ],
      "name": "givePerscriptionWithIndex",
      "outputs": [],
      "payable": false,
      "stateMutability": "nonpayable",
      "type": "function"
    },
    {
      "constant": false,
      "inputs": [
        {
          "internalType": "address",
          "name": "_client_id",
          "type": "address"
        },
        {
          "internalType": "string",
          "name": "_drug_name",
          "type": "string"
        },
        {
          "internalType": "string",
          "name": "_drug_id",
          "type": "string"
        }
      ],
      "name": "givePerscriptionWithoutIndex",
      "outputs": [],
      "payable": false,
      "stateMutability": "nonpayable",
      "type": "function"
    },
    {
      "constant": false,
      "inputs": [
        {
          "internalType": "uint256",
          "name": "index",
          "type": "uint256"
        }
      ],
      "name": "removeRequest",
      "outputs": [],
      "payable": false,
      "stateMutability": "nonpayable",
      "type": "function"
    },
    {
      "constant": false,
      "inputs": [
        {
          "internalType": "address",
          "name": "_client_id",
          "type": "address"
        },
        {
          "internalType": "string",
          "name": "_drug_id",
          "type": "string"
        }
      ],
      "name": "removeRequestWithoutIndex",
      "outputs": [],
      "payable": false,
      "stateMutability": "nonpayable",
      "type": "function"
    }
  ],
  "bytecode": "0x60806040526000805560006002556000600455604051806020016040528073e092b1fa25df5786d151246e492eed3d15ea4daa73ffffffffffffffffffffffffffffffffffffffff1673ffffffffffffffffffffffffffffffffffffffff1681525060069060016200007392919062000088565b503480156200008157600080fd5b506200015d565b82805482825590600052602060002090810192821562000104579160200282015b82811115620001035782518260006101000a81548173ffffffffffffffffffffffffffffffffffffffff021916908373ffffffffffffffffffffffffffffffffffffffff16021790555091602001919060010190620000a9565b5b50905062000113919062000117565b5090565b6200015a91905b808211156200015657600081816101000a81549073ffffffffffffffffffffffffffffffffffffffff0219169055506001016200011e565b5090565b90565b611b76806200016d6000396000f3fe608060405234801561001057600080fd5b50600436106100f55760003560e01c8063bc6dee4f11610097578063e292ec0811610066578063e292ec081461029e578063e541c71e146102ba578063f69959f0146102d8578063f88af21d146102f4576100f5565b8063bc6dee4f14610200578063c58343ef1461021c578063d0068f801461024f578063d0baa2b114610280576100f5565b80635badbe4c116100d35780635badbe4c1461016457806370b5fa02146101825780639bd99ce21461019e578063b55e49a0146101d0576100f5565b80633015c987146100fa57806344786fc31461011657806358be050114610132575b600080fd5b610114600480360361010f9190810190611518565b610325565b005b610130600480360361012b919081019061162a565b610428565b005b61014c6004803603610147919081019061162a565b61069b565b60405161015b939291906118d7565b60405180910390f35b61016c610822565b604051610179919061195c565b60405180910390f35b61019c600480360361019791908101906114c4565b610828565b005b6101b860048036036101b3919081019061162a565b61095a565b6040516101c793929190611877565b60405180910390f35b6101ea60048036036101e5919081019061149b565b610b1f565b6040516101f791906118bc565b60405180910390f35b61021a60048036036102159190810190611597565b610b7b565b005b6102366004803603610231919081019061162a565b610c7e565b6040516102469493929190611977565b60405180910390f35b6102696004803603610264919081019061162a565b610e6e565b604051610277929190611847565b60405180910390f35b610288610fbc565b604051610295919061195c565b60405180910390f35b6102b860048036036102b391908101906114c4565b610fc2565b005b6102c2611096565b6040516102cf919061195c565b60405180910390f35b6102f260048036036102ed9190810190611518565b61109c565b005b61030e6004803603610309919081019061162a565b6111c0565b60405161031c929190611817565b60405180910390f35b600560405180606001604052808381526020018481526020018573ffffffffffffffffffffffffffffffffffffffff1681525090806001815401808255809150509060018203906000526020600020906003020160009091929091909150600082015181600001908051906020019061039f9291906112a9565b5060208201518160010190805190602001906103bc9291906112a9565b5060408201518160020160006101000a81548173ffffffffffffffffffffffffffffffffffffffff021916908373ffffffffffffffffffffffffffffffffffffffff1602179055505050506004600081548092919060010191905055506104238382610828565b505050565b61043133610b1f565b610470576040517f08c379a00000000000000000000000000000000000000000000000000000000081526004016104679061193c565b60405180910390fd5b60025481106104b4576040517f08c379a00000000000000000000000000000000000000000000000000000000081526004016104ab9061191c565b60405180910390fd5b60008190505b60016002540381101561060a57600360018201815481106104d757fe5b9060005260206000209060040201600382815481106104f257fe5b906000526020600020906004020160008201548160000155600182018160010160008201816000019080546001816001161561010002031660029004610539929190611329565b5060018201816001019080546001816001161561010002031660029004610561929190611329565b506002820160009054906101000a900473ffffffffffffffffffffffffffffffffffffffff168160020160006101000a81548173ffffffffffffffffffffffffffffffffffffffff021916908373ffffffffffffffffffffffffffffffffffffffff1602179055505050905050600381815481106105db57fe5b9060005260206000209060040201600001600081548092919060019003919050555080806001019150506104ba565b50600380548061061657fe5b6001900381819060005260206000209060040201600080820160009055600182016000808201600061064891906113b0565b60018201600061065891906113b0565b6002820160006101000a81549073ffffffffffffffffffffffffffffffffffffffff02191690555050505090556002600081548092919060019003919050555050565b600581815481106106a857fe5b9060005260206000209060030201600091509050806000018054600181600116156101000203166002900480601f0160208091040260200160405190810160405280929190818152602001828054600181600116156101000203166002900480156107545780601f1061072957610100808354040283529160200191610754565b820191906000526020600020905b81548152906001019060200180831161073757829003601f168201915b505050505090806001018054600181600116156101000203166002900480601f0160208091040260200160405190810160405280929190818152602001828054600181600116156101000203166002900480156107f25780601f106107c7576101008083540402835291602001916107f2565b820191906000526020600020905b8154815290600101906020018083116107d557829003601f168201915b5050505050908060020160009054906101000a900473ffffffffffffffffffffffffffffffffffffffff16905083565b60025481565b61083133610b1f565b610870576040517f08c379a00000000000000000000000000000000000000000000000000000000081526004016108679061193c565b60405180910390fd5b60008090505b600254811015610955578273ffffffffffffffffffffffffffffffffffffffff16600382815481106108a457fe5b906000526020600020906004020160010160020160009054906101000a900473ffffffffffffffffffffffffffffffffffffffff1673ffffffffffffffffffffffffffffffffffffffff1614156109485781805190602001206003828154811061090a57fe5b906000526020600020906004020160010160000160405161092b9190611800565b604051809103902014156109475761094281610428565b610955565b5b8080600101915050610876565b505050565b60006060806005848154811061096c57fe5b906000526020600020906003020160020160009054906101000a900473ffffffffffffffffffffffffffffffffffffffff16600585815481106109ab57fe5b9060005260206000209060030201600001600586815481106109c957fe5b9060005260206000209060030201600101818054600181600116156101000203166002900480601f016020809104026020016040519081016040528092919081815260200182805460018160011615610100020316600290048015610a6f5780601f10610a4457610100808354040283529160200191610a6f565b820191906000526020600020905b815481529060010190602001808311610a5257829003601f168201915b50505050509150808054600181600116156101000203166002900480601f016020809104026020016040519081016040528092919081815260200182805460018160011615610100020316600290048015610b0b5780601f10610ae057610100808354040283529160200191610b0b565b820191906000526020600020905b815481529060010190602001808311610aee57829003601f168201915b505050505090509250925092509193909250565b600073e092b1fa25df5786d151246e492eed3d15ea4daa73ffffffffffffffffffffffffffffffffffffffff168273ffffffffffffffffffffffffffffffffffffffff1614610b715760009050610b76565b600190505b919050565b600560405180606001604052808581526020018481526020018673ffffffffffffffffffffffffffffffffffffffff16815250908060018154018082558091505090600182039060005260206000209060030201600090919290919091506000820151816000019080519060200190610bf59291906112a9565b506020820151816001019080519060200190610c129291906112a9565b5060408201518160020160006101000a81548173ffffffffffffffffffffffffffffffffffffffff021916908373ffffffffffffffffffffffffffffffffffffffff160217905550505050600460008154809291906001019190505550610c7881610428565b50505050565b60008060608060038581548110610c9157fe5b90600052602060002090600402016000015460038681548110610cb057fe5b906000526020600020906004020160010160020160009054906101000a900473ffffffffffffffffffffffffffffffffffffffff1660038781548110610cf257fe5b906000526020600020906004020160010160000160038881548110610d1357fe5b9060005260206000209060040201600101600101818054600181600116156101000203166002900480601f016020809104026020016040519081016040528092919081815260200182805460018160011615610100020316600290048015610dbc5780601f10610d9157610100808354040283529160200191610dbc565b820191906000526020600020905b815481529060010190602001808311610d9f57829003601f168201915b50505050509150808054600181600116156101000203166002900480601f016020809104026020016040519081016040528092919081815260200182805460018160011615610100020316600290048015610e585780601f10610e2d57610100808354040283529160200191610e58565b820191906000526020600020905b815481529060010190602001808311610e3b57829003601f168201915b5050505050905093509350935093509193509193565b60006060610e7b33610b1f565b610eba576040517f08c379a0000000000000000000000000000000000000000000000000000000008152600401610eb19061193c565b60405180910390fd5b60018381548110610ec757fe5b906000526020600020906002020160000160009054906101000a900473ffffffffffffffffffffffffffffffffffffffff1660018481548110610f0657fe5b9060005260206000209060020201600101808054600181600116156101000203166002900480601f016020809104026020016040519081016040528092919081815260200182805460018160011615610100020316600290048015610fac5780601f10610f8157610100808354040283529160200191610fac565b820191906000526020600020905b815481529060010190602001808311610f8f57829003601f168201915b5050505050905091509150915091565b60045481565b600160405180604001604052808473ffffffffffffffffffffffffffffffffffffffff168152602001838152509080600181540180825580915050906001820390600052602060002090600202016000909192909190915060008201518160000160006101000a81548173ffffffffffffffffffffffffffffffffffffffff021916908373ffffffffffffffffffffffffffffffffffffffff160217905550602082015181600101908051906020019061107d9291906112a9565b5050505060008081548092919060010191905055505050565b60005481565b60036040518060400160405280600254815260200160405180606001604052808681526020018581526020018773ffffffffffffffffffffffffffffffffffffffff168152508152509080600181540180825580915050906001820390600052602060002090600402016000909192909190915060008201518160000155602082015181600101600082015181600001908051906020019061113f9291906112a9565b50602082015181600101908051906020019061115c9291906112a9565b5060408201518160020160006101000a81548173ffffffffffffffffffffffffffffffffffffffff021916908373ffffffffffffffffffffffffffffffffffffffff1602179055505050505050600260008154809291906001019190505550505050565b600181815481106111cd57fe5b90600052602060002090600202016000915090508060000160009054906101000a900473ffffffffffffffffffffffffffffffffffffffff1690806001018054600181600116156101000203166002900480601f01602080910402602001604051908101604052809291908181526020018280546001816001161561010002031660029004801561129f5780601f106112745761010080835404028352916020019161129f565b820191906000526020600020905b81548152906001019060200180831161128257829003601f168201915b5050505050905082565b828054600181600116156101000203166002900490600052602060002090601f016020900481019282601f106112ea57805160ff1916838001178555611318565b82800160010185558215611318579182015b828111156113175782518255916020019190600101906112fc565b5b50905061132591906113f8565b5090565b828054600181600116156101000203166002900490600052602060002090601f016020900481019282601f10611362578054855561139f565b8280016001018555821561139f57600052602060002091601f016020900482015b8281111561139e578254825591600101919060010190611383565b5b5090506113ac91906113f8565b5090565b50805460018160011615610100020316600290046000825580601f106113d657506113f5565b601f0160209004906000526020600020908101906113f491906113f8565b5b50565b61141a91905b808211156114165760008160009055506001016113fe565b5090565b90565b60008135905061142c81611b05565b92915050565b600082601f83011261144357600080fd5b8135611456611451826119f7565b6119ca565b9150808252602083016020830185838301111561147257600080fd5b61147d838284611ab2565b50505092915050565b60008135905061149581611b1c565b92915050565b6000602082840312156114ad57600080fd5b60006114bb8482850161141d565b91505092915050565b600080604083850312156114d757600080fd5b60006114e58582860161141d565b925050602083013567ffffffffffffffff81111561150257600080fd5b61150e85828601611432565b9150509250929050565b60008060006060848603121561152d57600080fd5b600061153b8682870161141d565b935050602084013567ffffffffffffffff81111561155857600080fd5b61156486828701611432565b925050604084013567ffffffffffffffff81111561158157600080fd5b61158d86828701611432565b9150509250925092565b600080600080608085870312156115ad57600080fd5b60006115bb8782880161141d565b945050602085013567ffffffffffffffff8111156115d857600080fd5b6115e487828801611432565b935050604085013567ffffffffffffffff81111561160157600080fd5b61160d87828801611432565b925050606061161e87828801611486565b91505092959194509250565b60006020828403121561163c57600080fd5b600061164a84828501611486565b91505092915050565b61165c81611a6a565b82525050565b61166b81611a7c565b82525050565b60008154600181166000811461168e57600181146116b3576116f7565b607f600283041661169f8187611a4e565b955060ff19831686528086019350506116f7565b600282046116c18187611a4e565b95506116cc85611a23565b60005b828110156116ee578154818901526001820191506020810190506116cf565b82880195505050505b505092915050565b600061170a82611a43565b6117148185611a59565b9350611724818560208601611ac1565b61172d81611af4565b840191505092915050565b600061174382611a38565b61174d8185611a59565b935061175d818560208601611ac1565b61176681611af4565b840191505092915050565b600061177e600983611a59565b91507f62616420696e64657800000000000000000000000000000000000000000000006000830152602082019050919050565b60006117be601683611a59565b91507f63616c6c6572206973206e6f74206120646f63746f72000000000000000000006000830152602082019050919050565b6117fa81611aa8565b82525050565b600061180c8284611671565b915081905092915050565b600060408201905061182c6000830185611653565b818103602083015261183e8184611738565b90509392505050565b600060408201905061185c6000830185611653565b818103602083015261186e81846116ff565b90509392505050565b600060608201905061188c6000830186611653565b818103602083015261189e81856116ff565b905081810360408301526118b281846116ff565b9050949350505050565b60006020820190506118d16000830184611662565b92915050565b600060608201905081810360008301526118f18186611738565b905081810360208301526119058185611738565b90506119146040830184611653565b949350505050565b6000602082019050818103600083015261193581611771565b9050919050565b60006020820190508181036000830152611955816117b1565b9050919050565b600060208201905061197160008301846117f1565b92915050565b600060808201905061198c60008301876117f1565b6119996020830186611653565b81810360408301526119ab81856116ff565b905081810360608301526119bf81846116ff565b905095945050505050565b6000604051905081810181811067ffffffffffffffff821117156119ed57600080fd5b8060405250919050565b600067ffffffffffffffff821115611a0e57600080fd5b601f19601f8301169050602081019050919050565b60008190508160005260206000209050919050565b600081519050919050565b600081519050919050565b600081905092915050565b600082825260208201905092915050565b6000611a7582611a88565b9050919050565b60008115159050919050565b600073ffffffffffffffffffffffffffffffffffffffff82169050919050565b6000819050919050565b82818337600083830152505050565b60005b83811015611adf578082015181840152602081019050611ac4565b83811115611aee576000848401525b50505050565b6000601f19601f8301169050919050565b611b0e81611a6a565b8114611b1957600080fd5b50565b611b2581611aa8565b8114611b3057600080fd5b5056fea365627a7a72315820c3f88df4d2d1868fb87150035947a81acb752cb3e8d71d67c4f0ffcaa1f856666c6578706572696d656e74616cf564736f6c63430005100040",
  "source": "// SPDX-License-Identifier: MIT\npragma solidity >=0.4.22 <0.9.0;\npragma experimental ABIEncoderV2;\n\ncontract ClientContract {\n    \n    struct Client {\n        address _client_id;\n        string _client_name;\n    }\n\n    struct Perscription {\n        string _drug_id;\n        string _drug_name;\n        address _client_id;\n    }\n\n    struct Request {\n        uint _request_number;\n        Perscription _perscription;\n    }\n        \n    uint public clientCount = 0;\n    Client[] public clients;\n    \n    uint public requestCount = 0;\n    Request[] requests;\n    \n    \n    uint public perscriptionCount = 0;\n    Perscription[] public perscriptions;\n    \n    address[] private permitted = [address(0xe092b1fa25DF5786D151246E492Eed3d15EA4dAA)];\n\n    function onlyPermittedDoctor(address sender) public pure returns(bool){\n        if (sender != address(0xe092b1fa25DF5786D151246E492Eed3d15EA4dAA))\n                return false;\n        return true;\n    }\n\n    modifier isDoctor(){\n        require(onlyPermittedDoctor(msg.sender), 'caller is not a doctor');\n        _;\n    }\n\n    constructor() public {\n        \n    }\n\n    function addClient(address _client_id, string memory _client_name) public {\n        clients.push(Client(_client_id, _client_name));\n        clientCount++;\n    }\n\n    function getClient(uint index) public view isDoctor returns(address, string memory) {\n        return (clients[index]._client_id, clients[index]._client_name);\n    }\n    \n    function getPerscription(uint index) public view returns(address, string memory, string memory) {\n        return (perscriptions[index]._client_id, perscriptions[index]._drug_id, perscriptions[index]._drug_name);\n    }\n    \n    function requestPerscription(address _client_id, string memory _drug_id, string memory _drug_name) public {\n        requests.push(Request(requestCount, Perscription(_drug_id, _drug_name, _client_id)));\n        requestCount++;\n    }\n\n    function getRequest(uint index) public view returns(uint, address, string memory, string memory)  {\n        return (requests[index]._request_number, requests[index]._perscription._client_id, requests[index]._perscription._drug_id, requests[index]._perscription._drug_name);\n    }\n\n    function givePerscriptionWithIndex(address _client_id, string memory _drug_id, string memory _drug_name, uint _index) public {\n        perscriptions.push(Perscription(_drug_id, _drug_name, _client_id));\n        perscriptionCount++;\n        removeRequest(_index);\n    }\n    \n    function givePerscriptionWithoutIndex(address _client_id, string memory _drug_name, string memory _drug_id) public {\n        perscriptions.push(Perscription(_drug_id, _drug_name, _client_id));\n        perscriptionCount++;\n        removeRequestWithoutIndex(_client_id, _drug_id);\n    }\n    \n    function removeRequest(uint index) public isDoctor {\n        if (index >= requestCount) revert('bad index');\n        \n        for (uint i = index; i < requestCount-1; i++){\n            requests[i] = requests[i+1];\n            requests[i]._request_number--;\n        }\n        requests.pop();\n        requestCount--;\n    }\n    \n    function removeRequestWithoutIndex(address _client_id, string memory _drug_id) public isDoctor {\n        for (uint i = 0; i < requestCount; i++) {\n            if (requests[i]._perscription._client_id == _client_id) {\n                if (keccak256(bytes(requests[i]._perscription._drug_id)) == keccak256(bytes(_drug_id))) {\n                    removeRequest(i);\n                    break;\n                }\n            }\n        }\n    }\n}",
  "sourcePath": "/Users/max/dev/eth-prescriptions/contracts/ClientContract.sol",
  "compiler": {
    "name": "solc",
    "version": "0.5.16+commit.9c3226ce.Emscripten.clang"
  },
  "schemaVersion": "3.3.3",
  "updatedAt": "2021-02-16T15:05:49.248Z",
  "devdoc": {
    "methods": {}
  },
  "userdoc": {
    "methods": {}
  }
}