{
  "contractName": "MedicineContract",
  "abi": [
    {
      "inputs": [],
      "payable": false,
      "stateMutability": "nonpayable",
      "type": "constructor"
    },
    {
      "constant": true,
      "inputs": [],
      "name": "medicineCount",
      "outputs": [
        {
          "internalType": "uint256",
          "name": "",
          "type": "uint256"
        }
      ],
      "payable": false,
      "stateMutability": "view",
      "type": "function"
    },
    {
      "constant": true,
      "inputs": [
        {
          "internalType": "uint256",
          "name": "",
          "type": "uint256"
        }
      ],
      "name": "medicines",
      "outputs": [
        {
          "internalType": "string",
          "name": "_id",
          "type": "string"
        },
        {
          "internalType": "string",
          "name": "_drugName",
          "type": "string"
        },
        {
          "internalType": "string",
          "name": "_brandName",
          "type": "string"
        },
        {
          "internalType": "uint256",
          "name": "_price",
          "type": "uint256"
        }
      ],
      "payable": false,
      "stateMutability": "view",
      "type": "function"
    },
    {
      "constant": true,
      "inputs": [
        {
          "internalType": "address",
          "name": "sender",
          "type": "address"
        }
      ],
      "name": "onlyPermittedDoctor",
      "outputs": [
        {
          "internalType": "bool",
          "name": "",
          "type": "bool"
        }
      ],
      "payable": false,
      "stateMutability": "pure",
      "type": "function"
    },
    {
      "constant": false,
      "inputs": [
        {
          "internalType": "string",
          "name": "_id",
          "type": "string"
        },
        {
          "internalType": "string",
          "name": "_medicine",
          "type": "string"
        },
        {
          "internalType": "string",
          "name": "_brandName",
          "type": "string"
        },
        {
          "internalType": "uint256",
          "name": "_price",
          "type": "uint256"
        }
      ],
      "name": "addDrug",
      "outputs": [],
      "payable": false,
      "stateMutability": "nonpayable",
      "type": "function"
    },
    {
      "constant": false,
      "inputs": [
        {
          "internalType": "uint256",
          "name": "index",
          "type": "uint256"
        }
      ],
      "name": "removeDrug",
      "outputs": [],
      "payable": false,
      "stateMutability": "nonpayable",
      "type": "function"
    },
    {
      "constant": true,
      "inputs": [
        {
          "internalType": "uint256",
          "name": "index",
          "type": "uint256"
        }
      ],
      "name": "getMedicine",
      "outputs": [
        {
          "internalType": "string",
          "name": "",
          "type": "string"
        },
        {
          "internalType": "string",
          "name": "",
          "type": "string"
        },
        {
          "internalType": "string",
          "name": "",
          "type": "string"
        },
        {
          "internalType": "uint256",
          "name": "",
          "type": "uint256"
        }
      ],
      "payable": false,
      "stateMutability": "view",
      "type": "function"
    }
  ],
  "bytecode": "0x60806040526000600155604051806020016040528073e092b1fa25df5786d151246e492eed3d15ea4daa73ffffffffffffffffffffffffffffffffffffffff1673ffffffffffffffffffffffffffffffffffffffff16815250600390600161006892919061007b565b5034801561007557600080fd5b50610148565b8280548282559060005260206000209081019282156100f4579160200282015b828111156100f35782518260006101000a81548173ffffffffffffffffffffffffffffffffffffffff021916908373ffffffffffffffffffffffffffffffffffffffff1602179055509160200191906001019061009b565b5b5090506101019190610105565b5090565b61014591905b8082111561014157600081816101000a81549073ffffffffffffffffffffffffffffffffffffffff02191690555060010161010b565b5090565b90565b610f2c806101576000396000f3fe608060405234801561001057600080fd5b50600436106100625760003560e01c8063351b4f82146100675780634dafd4901461025a578063a674226514610278578063b55e49a0146103fe578063c85e766d1461045a578063eeed02d0146105e0575b600080fd5b6102586004803603608081101561007d57600080fd5b810190808035906020019064010000000081111561009a57600080fd5b8201836020820111156100ac57600080fd5b803590602001918460018302840111640100000000831117156100ce57600080fd5b91908080601f016020809104026020016040519081016040528093929190818152602001838380828437600081840152601f19601f8201169050808301925050505050505091929192908035906020019064010000000081111561013157600080fd5b82018360208201111561014357600080fd5b8035906020019184600183028401116401000000008311171561016557600080fd5b91908080601f016020809104026020016040519081016040528093929190818152602001838380828437600081840152601f19601f820116905080830192505050505050509192919290803590602001906401000000008111156101c857600080fd5b8201836020820111156101da57600080fd5b803590602001918460018302840111640100000000831117156101fc57600080fd5b91908080601f016020809104026020016040519081016040528093929190818152602001838380828437600081840152601f19601f8201169050808301925050505050505091929192908035906020019092919050505061060e565b005b6102626106d8565b6040518082815260200191505060405180910390f35b6102a46004803603602081101561028e57600080fd5b81019080803590602001909291905050506106de565b60405180806020018060200180602001858152602001848103845288818151815260200191508051906020019080838360005b838110156102f25780820151818401526020810190506102d7565b50505050905090810190601f16801561031f5780820380516001836020036101000a031916815260200191505b50848103835287818151815260200191508051906020019080838360005b8381101561035857808201518184015260208101905061033d565b50505050905090810190601f1680156103855780820380516001836020036101000a031916815260200191505b50848103825286818151815260200191508051906020019080838360005b838110156103be5780820151818401526020810190506103a3565b50505050905090810190601f1680156103eb5780820380516001836020036101000a031916815260200191505b5097505050505050505060405180910390f35b6104406004803603602081101561041457600080fd5b81019080803573ffffffffffffffffffffffffffffffffffffffff169060200190929190505050610941565b604051808215151515815260200191505060405180910390f35b6104866004803603602081101561047057600080fd5b810190808035906020019092919050505061099d565b60405180806020018060200180602001858152602001848103845288818151815260200191508051906020019080838360005b838110156104d45780820151818401526020810190506104b9565b50505050905090810190601f1680156105015780820380516001836020036101000a031916815260200191505b50848103835287818151815260200191508051906020019080838360005b8381101561053a57808201518184015260208101905061051f565b50505050905090810190601f1680156105675780820380516001836020036101000a031916815260200191505b50848103825286818151815260200191508051906020019080838360005b838110156105a0578082015181840152602081019050610585565b50505050905090810190601f1680156105cd5780820380516001836020036101000a031916815260200191505b5097505050505050505060405180910390f35b61060c600480360360208110156105f657600080fd5b8101908080359060200190929190505050610ba2565b005b6002604051806080016040528086815260200185815260200184815260200183815250908060018154018082558091505090600182039060005260206000209060040201600090919290919091506000820151816000019080519060200190610678929190610d83565b506020820151816001019080519060200190610695929190610d83565b5060408201518160020190805190602001906106b2929190610d83565b506060820151816003015550505060016000815480929190600101919050555050505050565b60015481565b60608060606000600285815481106106f257fe5b90600052602060002090600402016000016002868154811061071057fe5b90600052602060002090600402016001016002878154811061072e57fe5b90600052602060002090600402016002016002888154811061074c57fe5b906000526020600020906004020160030154838054600181600116156101000203166002900480601f0160208091040260200160405190810160405280929190818152602001828054600181600116156101000203166002900480156107f35780601f106107c8576101008083540402835291602001916107f3565b820191906000526020600020905b8154815290600101906020018083116107d657829003601f168201915b50505050509350828054600181600116156101000203166002900480601f01602080910402602001604051908101604052809291908181526020018280546001816001161561010002031660029004801561088f5780601f106108645761010080835404028352916020019161088f565b820191906000526020600020905b81548152906001019060200180831161087257829003601f168201915b50505050509250818054600181600116156101000203166002900480601f01602080910402602001604051908101604052809291908181526020018280546001816001161561010002031660029004801561092b5780601f106109005761010080835404028352916020019161092b565b820191906000526020600020905b81548152906001019060200180831161090e57829003601f168201915b5050505050915093509350935093509193509193565b600073e092b1fa25df5786d151246e492eed3d15ea4daa73ffffffffffffffffffffffffffffffffffffffff168273ffffffffffffffffffffffffffffffffffffffff16146109935760009050610998565b600190505b919050565b600281815481106109aa57fe5b9060005260206000209060040201600091509050806000018054600181600116156101000203166002900480601f016020809104026020016040519081016040528092919081815260200182805460018160011615610100020316600290048015610a565780601f10610a2b57610100808354040283529160200191610a56565b820191906000526020600020905b815481529060010190602001808311610a3957829003601f168201915b505050505090806001018054600181600116156101000203166002900480601f016020809104026020016040519081016040528092919081815260200182805460018160011615610100020316600290048015610af45780601f10610ac957610100808354040283529160200191610af4565b820191906000526020600020905b815481529060010190602001808311610ad757829003601f168201915b505050505090806002018054600181600116156101000203166002900480601f016020809104026020016040519081016040528092919081815260200182805460018160011615610100020316600290048015610b925780601f10610b6757610100808354040283529160200191610b92565b820191906000526020600020905b815481529060010190602001808311610b7557829003601f168201915b5050505050908060030154905084565b610bab33610941565b610c1d576040517f08c379a00000000000000000000000000000000000000000000000000000000081526004018080602001828103825260168152602001807f63616c6c6572206973206e6f74206120646f63746f720000000000000000000081525060200191505060405180910390fd5b6002805490508110610c2e57610d80565b60008190505b600160028054905003811015610d0f5760026001820181548110610c5457fe5b906000526020600020906004020160028281548110610c6f57fe5b906000526020600020906004020160008201816000019080546001816001161561010002031660029004610ca4929190610e03565b5060018201816001019080546001816001161561010002031660029004610ccc929190610e03565b5060028201816002019080546001816001161561010002031660029004610cf4929190610e03565b50600382015481600301559050508080600101915050610c34565b506002805480610d1b57fe5b600190038181906000526020600020906004020160008082016000610d409190610e8a565b600182016000610d509190610e8a565b600282016000610d609190610e8a565b600382016000905550509055600160008154809291906001900391905055505b50565b828054600181600116156101000203166002900490600052602060002090601f016020900481019282601f10610dc457805160ff1916838001178555610df2565b82800160010185558215610df2579182015b82811115610df1578251825591602001919060010190610dd6565b5b509050610dff9190610ed2565b5090565b828054600181600116156101000203166002900490600052602060002090601f016020900481019282601f10610e3c5780548555610e79565b82800160010185558215610e7957600052602060002091601f016020900482015b82811115610e78578254825591600101919060010190610e5d565b5b509050610e869190610ed2565b5090565b50805460018160011615610100020316600290046000825580601f10610eb05750610ecf565b601f016020900490600052602060002090810190610ece9190610ed2565b5b50565b610ef491905b80821115610ef0576000816000905550600101610ed8565b5090565b9056fea265627a7a72315820f7ca7da7fc9b99407765629edfea165d83227ae5592d8db2543dfa100b2c505964736f6c63430005100032",
  "source": "// SPDX-License-Identifier: MIT\npragma solidity >=0.4.22 <0.9.0;\n\ncontract MedicineContract {\n    \n    struct Medicine {\n        string _id;\n        string _drugName;\n        string _brandName;\n        uint _price;\n    }\n    \n    address owner;\n    \n    uint public medicineCount = 0;\n    Medicine[] public medicines;\n    \n    address[] private permitted = [address(0xe092b1fa25DF5786D151246E492Eed3d15EA4dAA)];\n\n    function onlyPermittedDoctor(address sender) public pure returns(bool){\n        if (sender != address(0xe092b1fa25DF5786D151246E492Eed3d15EA4dAA))\n                return false;\n        return true;\n    }\n\n    modifier isDoctor(){\n        require(onlyPermittedDoctor(msg.sender), 'caller is not a doctor');\n        _;\n    }\n    \n    constructor() public {\n    }\n    \n    function addDrug(string memory _id, string memory _medicine, string memory _brandName, uint _price) public {\n        medicines.push(Medicine(_id, _medicine, _brandName, _price));\n        medicineCount++;\n    }\n    \n    function removeDrug(uint index) public isDoctor {\n        if (index >= medicines.length) return;\n\n        for (uint i = index; i < medicines.length-1; i++){\n            medicines[i] = medicines[i+1];\n        }\n        medicines.pop();\n        medicineCount--;\n    }\n\n    function getMedicine(uint index) public view returns(string memory, string memory, string memory, uint) {\n        return (medicines[index]._id, medicines[index]._drugName, medicines[index]._brandName, medicines[index]._price);\n    }\n}",
  "sourcePath": "/Users/max/dev/eth-prescriptions/contracts/MedicineContract.sol",
  "compiler": {
    "name": "solc",
    "version": "0.5.16+commit.9c3226ce.Emscripten.clang"
  },
  "schemaVersion": "3.3.3",
  "updatedAt": "2021-02-16T15:16:45.357Z",
  "devdoc": {
    "methods": {}
  },
  "userdoc": {
    "methods": {}
  }
}