{
  "contractName": "MedicineContract",
  "abi": [
    {
      "inputs": [],
      "payable": false,
      "stateMutability": "nonpayable",
      "type": "constructor"
    },
    {
      "constant": true,
      "inputs": [],
      "name": "medicineCount",
      "outputs": [
        {
          "internalType": "uint256",
          "name": "",
          "type": "uint256"
        }
      ],
      "payable": false,
      "stateMutability": "view",
      "type": "function"
    },
    {
      "constant": true,
      "inputs": [
        {
          "internalType": "uint256",
          "name": "",
          "type": "uint256"
        }
      ],
      "name": "medicines",
      "outputs": [
        {
          "internalType": "string",
          "name": "_id",
          "type": "string"
        },
        {
          "internalType": "string",
          "name": "_drugName",
          "type": "string"
        },
        {
          "internalType": "string",
          "name": "_brandName",
          "type": "string"
        },
        {
          "internalType": "uint256",
          "name": "_price",
          "type": "uint256"
        }
      ],
      "payable": false,
      "stateMutability": "view",
      "type": "function"
    },
    {
      "constant": true,
      "inputs": [
        {
          "internalType": "address",
          "name": "sender",
          "type": "address"
        }
      ],
      "name": "onlyPermittedDoctor",
      "outputs": [
        {
          "internalType": "bool",
          "name": "",
          "type": "bool"
        }
      ],
      "payable": false,
      "stateMutability": "view",
      "type": "function"
    },
    {
      "constant": true,
      "inputs": [],
      "name": "getPermittedList",
      "outputs": [
        {
          "internalType": "address[]",
          "name": "",
          "type": "address[]"
        }
      ],
      "payable": false,
      "stateMutability": "view",
      "type": "function"
    },
    {
      "constant": false,
      "inputs": [
        {
          "internalType": "string",
          "name": "_id",
          "type": "string"
        },
        {
          "internalType": "string",
          "name": "_medicine",
          "type": "string"
        },
        {
          "internalType": "string",
          "name": "_brandName",
          "type": "string"
        },
        {
          "internalType": "uint256",
          "name": "_price",
          "type": "uint256"
        }
      ],
      "name": "addDrug",
      "outputs": [],
      "payable": false,
      "stateMutability": "nonpayable",
      "type": "function"
    },
    {
      "constant": false,
      "inputs": [
        {
          "internalType": "uint256",
          "name": "index",
          "type": "uint256"
        }
      ],
      "name": "removeDrug",
      "outputs": [],
      "payable": false,
      "stateMutability": "nonpayable",
      "type": "function"
    },
    {
      "constant": true,
      "inputs": [
        {
          "internalType": "uint256",
          "name": "index",
          "type": "uint256"
        }
      ],
      "name": "getMedicine",
      "outputs": [
        {
          "internalType": "string",
          "name": "",
          "type": "string"
        },
        {
          "internalType": "string",
          "name": "",
          "type": "string"
        },
        {
          "internalType": "string",
          "name": "",
          "type": "string"
        },
        {
          "internalType": "uint256",
          "name": "",
          "type": "uint256"
        }
      ],
      "payable": false,
      "stateMutability": "view",
      "type": "function"
    }
  ],
  "bytecode": "0x60806040526000805534801561001457600080fd5b5033600360006101000a81548173ffffffffffffffffffffffffffffffffffffffff021916908373ffffffffffffffffffffffffffffffffffffffff1602179055506002600360009054906101000a900473ffffffffffffffffffffffffffffffffffffffff1690806001815401808255809150509060018203906000526020600020016000909192909190916101000a81548173ffffffffffffffffffffffffffffffffffffffff021916908373ffffffffffffffffffffffffffffffffffffffff16021790555050611072806100ed6000396000f3fe608060405234801561001057600080fd5b506004361061007d5760003560e01c8063a67422651161005b578063a6742265146102f2578063b55e49a014610478578063c85e766d146104d4578063eeed02d01461065a5761007d565b8063351b4f82146100825780634dafd490146102755780638fa1c18414610293575b600080fd5b6102736004803603608081101561009857600080fd5b81019080803590602001906401000000008111156100b557600080fd5b8201836020820111156100c757600080fd5b803590602001918460018302840111640100000000831117156100e957600080fd5b91908080601f016020809104026020016040519081016040528093929190818152602001838380828437600081840152601f19601f8201169050808301925050505050505091929192908035906020019064010000000081111561014c57600080fd5b82018360208201111561015e57600080fd5b8035906020019184600183028401116401000000008311171561018057600080fd5b91908080601f016020809104026020016040519081016040528093929190818152602001838380828437600081840152601f19601f820116905080830192505050505050509192919290803590602001906401000000008111156101e357600080fd5b8201836020820111156101f557600080fd5b8035906020019184600183028401116401000000008311171561021757600080fd5b91908080601f016020809104026020016040519081016040528093929190818152602001838380828437600081840152601f19601f82011690508083019250505050505050919291929080359060200190929190505050610688565b005b61027d610751565b6040518082815260200191505060405180910390f35b61029b610757565b6040518080602001828103825283818151815260200191508051906020019060200280838360005b838110156102de5780820151818401526020810190506102c3565b505050509050019250505060405180910390f35b61031e6004803603602081101561030857600080fd5b81019080803590602001909291905050506107e5565b60405180806020018060200180602001858152602001848103845288818151815260200191508051906020019080838360005b8381101561036c578082015181840152602081019050610351565b50505050905090810190601f1680156103995780820380516001836020036101000a031916815260200191505b50848103835287818151815260200191508051906020019080838360005b838110156103d25780820151818401526020810190506103b7565b50505050905090810190601f1680156103ff5780820380516001836020036101000a031916815260200191505b50848103825286818151815260200191508051906020019080838360005b8381101561043857808201518184015260208101905061041d565b50505050905090810190601f1680156104655780820380516001836020036101000a031916815260200191505b5097505050505050505060405180910390f35b6104ba6004803603602081101561048e57600080fd5b81019080803573ffffffffffffffffffffffffffffffffffffffff169060200190929190505050610a48565b604051808215151515815260200191505060405180910390f35b610500600480360360208110156104ea57600080fd5b8101908080359060200190929190505050610ae6565b60405180806020018060200180602001858152602001848103845288818151815260200191508051906020019080838360005b8381101561054e578082015181840152602081019050610533565b50505050905090810190601f16801561057b5780820380516001836020036101000a031916815260200191505b50848103835287818151815260200191508051906020019080838360005b838110156105b4578082015181840152602081019050610599565b50505050905090810190601f1680156105e15780820380516001836020036101000a031916815260200191505b50848103825286818151815260200191508051906020019080838360005b8381101561061a5780820151818401526020810190506105ff565b50505050905090810190601f1680156106475780820380516001836020036101000a031916815260200191505b5097505050505050505060405180910390f35b6106866004803603602081101561067057600080fd5b8101908080359060200190929190505050610ceb565b005b60016040518060800160405280868152602001858152602001848152602001838152509080600181540180825580915050906001820390600052602060002090600402016000909192909190915060008201518160000190805190602001906106f2929190610ec9565b50602082015181600101908051906020019061070f929190610ec9565b50604082015181600201908051906020019061072c929190610ec9565b5060608201518160030155505050600080815480929190600101919050555050505050565b60005481565b606060028054806020026020016040519081016040528092919081815260200182805480156107db57602002820191906000526020600020905b8160009054906101000a900473ffffffffffffffffffffffffffffffffffffffff1673ffffffffffffffffffffffffffffffffffffffff1681526020019060010190808311610791575b5050505050905090565b60608060606000600185815481106107f957fe5b90600052602060002090600402016000016001868154811061081757fe5b90600052602060002090600402016001016001878154811061083557fe5b90600052602060002090600402016002016001888154811061085357fe5b906000526020600020906004020160030154838054600181600116156101000203166002900480601f0160208091040260200160405190810160405280929190818152602001828054600181600116156101000203166002900480156108fa5780601f106108cf576101008083540402835291602001916108fa565b820191906000526020600020905b8154815290600101906020018083116108dd57829003601f168201915b50505050509350828054600181600116156101000203166002900480601f0160208091040260200160405190810160405280929190818152602001828054600181600116156101000203166002900480156109965780601f1061096b57610100808354040283529160200191610996565b820191906000526020600020905b81548152906001019060200180831161097957829003601f168201915b50505050509250818054600181600116156101000203166002900480601f016020809104026020016040519081016040528092919081815260200182805460018160011615610100020316600290048015610a325780601f10610a0757610100808354040283529160200191610a32565b820191906000526020600020905b815481529060010190602001808311610a1557829003601f168201915b5050505050915093509350935093509193509193565b6000805b600280549050811015610adb5760028181548110610a6657fe5b9060005260206000200160009054906101000a900473ffffffffffffffffffffffffffffffffffffffff1673ffffffffffffffffffffffffffffffffffffffff168373ffffffffffffffffffffffffffffffffffffffff161415610ace576001915050610ae1565b8080600101915050610a4c565b50600090505b919050565b60018181548110610af357fe5b9060005260206000209060040201600091509050806000018054600181600116156101000203166002900480601f016020809104026020016040519081016040528092919081815260200182805460018160011615610100020316600290048015610b9f5780601f10610b7457610100808354040283529160200191610b9f565b820191906000526020600020905b815481529060010190602001808311610b8257829003601f168201915b505050505090806001018054600181600116156101000203166002900480601f016020809104026020016040519081016040528092919081815260200182805460018160011615610100020316600290048015610c3d5780601f10610c1257610100808354040283529160200191610c3d565b820191906000526020600020905b815481529060010190602001808311610c2057829003601f168201915b505050505090806002018054600181600116156101000203166002900480601f016020809104026020016040519081016040528092919081815260200182805460018160011615610100020316600290048015610cdb5780601f10610cb057610100808354040283529160200191610cdb565b820191906000526020600020905b815481529060010190602001808311610cbe57829003601f168201915b5050505050908060030154905084565b610cf433610a48565b610d66576040517f08c379a00000000000000000000000000000000000000000000000000000000081526004018080602001828103825260168152602001807f63616c6c6572206973206e6f74206120646f63746f720000000000000000000081525060200191505060405180910390fd5b6001805490508110610d7757610ec6565b60008190505b6001808054905003811015610e5657600180820181548110610d9b57fe5b906000526020600020906004020160018281548110610db657fe5b906000526020600020906004020160008201816000019080546001816001161561010002031660029004610deb929190610f49565b5060018201816001019080546001816001161561010002031660029004610e13929190610f49565b5060028201816002019080546001816001161561010002031660029004610e3b929190610f49565b50600382015481600301559050508080600101915050610d7d565b506001805480610e6257fe5b600190038181906000526020600020906004020160008082016000610e879190610fd0565b600182016000610e979190610fd0565b600282016000610ea79190610fd0565b6003820160009055505090556000808154809291906001900391905055505b50565b828054600181600116156101000203166002900490600052602060002090601f016020900481019282601f10610f0a57805160ff1916838001178555610f38565b82800160010185558215610f38579182015b82811115610f37578251825591602001919060010190610f1c565b5b509050610f459190611018565b5090565b828054600181600116156101000203166002900490600052602060002090601f016020900481019282601f10610f825780548555610fbf565b82800160010185558215610fbf57600052602060002091601f016020900482015b82811115610fbe578254825591600101919060010190610fa3565b5b509050610fcc9190611018565b5090565b50805460018160011615610100020316600290046000825580601f10610ff65750611015565b601f0160209004906000526020600020908101906110149190611018565b5b50565b61103a91905b8082111561103657600081600090555060010161101e565b5090565b9056fea265627a7a723158204ea5d9ed6b92491f9d1691c2861ade4c0eb5ac3a56717a4c9e057231de28f2eb64736f6c63430005100032",
  "source": "// SPDX-License-Identifier: MIT\r\npragma solidity >=0.4.22 <0.9.0;\r\n\r\ncontract MedicineContract {\r\n    \r\n    struct Medicine {\r\n        string _id;\r\n        string _drugName;\r\n        string _brandName;\r\n        uint _price;\r\n    }\r\n        \r\n    uint public medicineCount = 0;\r\n    Medicine[] public medicines;\r\n    \r\n    address[] private permitted;\r\n    address owner;\r\n    \r\n    function onlyPermittedDoctor(address sender) public view returns(bool){\r\n        for(uint i; i < permitted.length; i++){\r\n            if(sender == permitted[i]){\r\n                return true;\r\n            }\r\n        }\r\n        return false;\r\n    }\r\n\r\n    modifier isDoctor() {\r\n        require(onlyPermittedDoctor(msg.sender), 'caller is not a doctor');\r\n        _;\r\n    }\r\n\r\n    constructor() public {\r\n        owner = msg.sender;\r\n        permitted.push(owner);\r\n    }\r\n    \r\n    function getPermittedList() public view returns(address[] memory) {\r\n        return permitted;\r\n    }\r\n    \r\n    function addDrug(string memory _id, string memory _medicine, string memory _brandName, uint _price) public {\r\n        medicines.push(Medicine(_id, _medicine, _brandName, _price));\r\n        medicineCount++;\r\n    }\r\n    \r\n    function removeDrug(uint index) public isDoctor {\r\n        if (index >= medicines.length) return;\r\n\r\n        for (uint i = index; i < medicines.length-1; i++){\r\n            medicines[i] = medicines[i+1];\r\n        }\r\n        medicines.pop();\r\n        medicineCount--;\r\n    }\r\n\r\n    function getMedicine(uint index) public view returns(string memory, string memory, string memory, uint) {\r\n        return (medicines[index]._id, medicines[index]._drugName, medicines[index]._brandName, medicines[index]._price);\r\n    }\r\n}",
  "sourcePath": "C:/dev/eth-prescriptions/contracts/MedicineContract.sol",
  "compiler": {
    "name": "solc",
    "version": "0.5.16+commit.9c3226ce.Emscripten.clang"
  },
  "schemaVersion": "3.3.3",
  "updatedAt": "2021-02-28T11:38:05.116Z",
  "devdoc": {
    "methods": {}
  },
  "userdoc": {
    "methods": {}
  }
}