{
  "contractName": "MedicineContract",
  "abi": [
    {
      "inputs": [],
      "payable": false,
      "stateMutability": "nonpayable",
      "type": "constructor"
    },
    {
      "constant": true,
      "inputs": [],
      "name": "medicineCount",
      "outputs": [
        {
          "internalType": "uint256",
          "name": "",
          "type": "uint256"
        }
      ],
      "payable": false,
      "stateMutability": "view",
      "type": "function"
    },
    {
      "constant": true,
      "inputs": [
        {
          "internalType": "uint256",
          "name": "",
          "type": "uint256"
        }
      ],
      "name": "medicines",
      "outputs": [
        {
          "internalType": "string",
          "name": "_id",
          "type": "string"
        },
        {
          "internalType": "string",
          "name": "_drugName",
          "type": "string"
        },
        {
          "internalType": "string",
          "name": "_brandName",
          "type": "string"
        },
        {
          "internalType": "uint256",
          "name": "_price",
          "type": "uint256"
        }
      ],
      "payable": false,
      "stateMutability": "view",
      "type": "function"
    },
    {
      "constant": false,
      "inputs": [
        {
          "internalType": "string",
          "name": "_id",
          "type": "string"
        },
        {
          "internalType": "string",
          "name": "_medicine",
          "type": "string"
        },
        {
          "internalType": "string",
          "name": "_brandName",
          "type": "string"
        },
        {
          "internalType": "uint256",
          "name": "_price",
          "type": "uint256"
        }
      ],
      "name": "addDrug",
      "outputs": [],
      "payable": false,
      "stateMutability": "nonpayable",
      "type": "function"
    },
    {
      "constant": false,
      "inputs": [
        {
          "internalType": "uint256",
          "name": "index",
          "type": "uint256"
        }
      ],
      "name": "removeDrug",
      "outputs": [],
      "payable": false,
      "stateMutability": "nonpayable",
      "type": "function"
    },
    {
      "constant": true,
      "inputs": [
        {
          "internalType": "uint256",
          "name": "index",
          "type": "uint256"
        }
      ],
      "name": "getMedicine",
      "outputs": [
        {
          "internalType": "string",
          "name": "",
          "type": "string"
        },
        {
          "internalType": "string",
          "name": "",
          "type": "string"
        },
        {
          "internalType": "string",
          "name": "",
          "type": "string"
        },
        {
          "internalType": "uint256",
          "name": "",
          "type": "uint256"
        }
      ],
      "payable": false,
      "stateMutability": "view",
      "type": "function"
    }
  ],
  "bytecode": "0x6080604052600060015534801561001557600080fd5b50336000806101000a81548173ffffffffffffffffffffffffffffffffffffffff021916908373ffffffffffffffffffffffffffffffffffffffff160217905550610eb2806100656000396000f3fe608060405234801561001057600080fd5b50600436106100575760003560e01c8063351b4f821461005c5780634dafd4901461024f578063a67422651461026d578063c85e766d146103f3578063eeed02d014610579575b600080fd5b61024d6004803603608081101561007257600080fd5b810190808035906020019064010000000081111561008f57600080fd5b8201836020820111156100a157600080fd5b803590602001918460018302840111640100000000831117156100c357600080fd5b91908080601f016020809104026020016040519081016040528093929190818152602001838380828437600081840152601f19601f8201169050808301925050505050505091929192908035906020019064010000000081111561012657600080fd5b82018360208201111561013857600080fd5b8035906020019184600183028401116401000000008311171561015a57600080fd5b91908080601f016020809104026020016040519081016040528093929190818152602001838380828437600081840152601f19601f820116905080830192505050505050509192919290803590602001906401000000008111156101bd57600080fd5b8201836020820111156101cf57600080fd5b803590602001918460018302840111640100000000831117156101f157600080fd5b91908080601f016020809104026020016040519081016040528093929190818152602001838380828437600081840152601f19601f820116905080830192505050505050509192919290803590602001909291905050506105a7565b005b610257610671565b6040518082815260200191505060405180910390f35b6102996004803603602081101561028357600080fd5b8101908080359060200190929190505050610677565b60405180806020018060200180602001858152602001848103845288818151815260200191508051906020019080838360005b838110156102e75780820151818401526020810190506102cc565b50505050905090810190601f1680156103145780820380516001836020036101000a031916815260200191505b50848103835287818151815260200191508051906020019080838360005b8381101561034d578082015181840152602081019050610332565b50505050905090810190601f16801561037a5780820380516001836020036101000a031916815260200191505b50848103825286818151815260200191508051906020019080838360005b838110156103b3578082015181840152602081019050610398565b50505050905090810190601f1680156103e05780820380516001836020036101000a031916815260200191505b5097505050505050505060405180910390f35b61041f6004803603602081101561040957600080fd5b81019080803590602001909291905050506108da565b60405180806020018060200180602001858152602001848103845288818151815260200191508051906020019080838360005b8381101561046d578082015181840152602081019050610452565b50505050905090810190601f16801561049a5780820380516001836020036101000a031916815260200191505b50848103835287818151815260200191508051906020019080838360005b838110156104d35780820151818401526020810190506104b8565b50505050905090810190601f1680156105005780820380516001836020036101000a031916815260200191505b50848103825286818151815260200191508051906020019080838360005b8381101561053957808201518184015260208101905061051e565b50505050905090810190601f1680156105665780820380516001836020036101000a031916815260200191505b5097505050505050505060405180910390f35b6105a56004803603602081101561058f57600080fd5b8101908080359060200190929190505050610adf565b005b6002604051806080016040528086815260200185815260200184815260200183815250908060018154018082558091505090600182039060005260206000209060040201600090919290919091506000820151816000019080519060200190610611929190610d09565b50602082015181600101908051906020019061062e929190610d09565b50604082015181600201908051906020019061064b929190610d09565b506060820151816003015550505060016000815480929190600101919050555050505050565b60015481565b606080606060006002858154811061068b57fe5b9060005260206000209060040201600001600286815481106106a957fe5b9060005260206000209060040201600101600287815481106106c757fe5b9060005260206000209060040201600201600288815481106106e557fe5b906000526020600020906004020160030154838054600181600116156101000203166002900480601f01602080910402602001604051908101604052809291908181526020018280546001816001161561010002031660029004801561078c5780601f106107615761010080835404028352916020019161078c565b820191906000526020600020905b81548152906001019060200180831161076f57829003601f168201915b50505050509350828054600181600116156101000203166002900480601f0160208091040260200160405190810160405280929190818152602001828054600181600116156101000203166002900480156108285780601f106107fd57610100808354040283529160200191610828565b820191906000526020600020905b81548152906001019060200180831161080b57829003601f168201915b50505050509250818054600181600116156101000203166002900480601f0160208091040260200160405190810160405280929190818152602001828054600181600116156101000203166002900480156108c45780601f10610899576101008083540402835291602001916108c4565b820191906000526020600020905b8154815290600101906020018083116108a757829003601f168201915b5050505050915093509350935093509193509193565b600281815481106108e757fe5b9060005260206000209060040201600091509050806000018054600181600116156101000203166002900480601f0160208091040260200160405190810160405280929190818152602001828054600181600116156101000203166002900480156109935780601f1061096857610100808354040283529160200191610993565b820191906000526020600020905b81548152906001019060200180831161097657829003601f168201915b505050505090806001018054600181600116156101000203166002900480601f016020809104026020016040519081016040528092919081815260200182805460018160011615610100020316600290048015610a315780601f10610a0657610100808354040283529160200191610a31565b820191906000526020600020905b815481529060010190602001808311610a1457829003601f168201915b505050505090806002018054600181600116156101000203166002900480601f016020809104026020016040519081016040528092919081815260200182805460018160011615610100020316600290048015610acf5780601f10610aa457610100808354040283529160200191610acf565b820191906000526020600020905b815481529060010190602001808311610ab257829003601f168201915b5050505050908060030154905084565b6000809054906101000a900473ffffffffffffffffffffffffffffffffffffffff1673ffffffffffffffffffffffffffffffffffffffff163373ffffffffffffffffffffffffffffffffffffffff1614610ba1576040517f08c379a00000000000000000000000000000000000000000000000000000000081526004018080602001828103825260168152602001807f63616c6c6572206973206e6f74206120646f63746f720000000000000000000081525060200191505060405180910390fd5b6002805490508110610bb257610d06565b60008190505b600160028054905003811015610c935760026001820181548110610bd857fe5b906000526020600020906004020160028281548110610bf357fe5b906000526020600020906004020160008201816000019080546001816001161561010002031660029004610c28929190610d89565b5060018201816001019080546001816001161561010002031660029004610c50929190610d89565b5060028201816002019080546001816001161561010002031660029004610c78929190610d89565b50600382015481600301559050508080600101915050610bb8565b50600260016002805490500381548110610ca957fe5b906000526020600020906004020160008082016000610cc89190610e10565b600182016000610cd89190610e10565b600282016000610ce89190610e10565b60038201600090555050600160008154809291906001900391905055505b50565b828054600181600116156101000203166002900490600052602060002090601f016020900481019282601f10610d4a57805160ff1916838001178555610d78565b82800160010185558215610d78579182015b82811115610d77578251825591602001919060010190610d5c565b5b509050610d859190610e58565b5090565b828054600181600116156101000203166002900490600052602060002090601f016020900481019282601f10610dc25780548555610dff565b82800160010185558215610dff57600052602060002091601f016020900482015b82811115610dfe578254825591600101919060010190610de3565b5b509050610e0c9190610e58565b5090565b50805460018160011615610100020316600290046000825580601f10610e365750610e55565b601f016020900490600052602060002090810190610e549190610e58565b5b50565b610e7a91905b80821115610e76576000816000905550600101610e5e565b5090565b9056fea265627a7a723158207f1715fed645ae101e3eb3e9f22e8658ad111ffb4c4dfb075b0e3217c90a66bf64736f6c63430005100032",
  "source": "// SPDX-License-Identifier: MIT\r\npragma solidity >=0.4.22 <0.9.0;\r\n\r\ncontract MedicineContract {\r\n    \r\n    struct Medicine {\r\n        string _id;\r\n        string _drugName;\r\n        string _brandName;\r\n        uint _price;\r\n    }\r\n    \r\n    address owner;\r\n    \r\n    uint public medicineCount = 0;\r\n    Medicine[] public medicines;\r\n    \r\n    modifier isDoctor() {\r\n        require(msg.sender == owner, \"caller is not a doctor\");\r\n        _;\r\n    }\r\n    \r\n    constructor() public {\r\n        owner = msg.sender;\r\n    }\r\n    \r\n    function addDrug(string memory _id, string memory _medicine, string memory _brandName, uint _price) public {\r\n        medicines.push(Medicine(_id, _medicine, _brandName, _price));\r\n        medicineCount++;\r\n    }\r\n    \r\n    function removeDrug(uint index) public isDoctor {\r\n        if (index >= medicines.length) return;\r\n\r\n        for (uint i = index; i < medicines.length-1; i++){\r\n            medicines[i] = medicines[i+1];\r\n        }\r\n        delete(medicines[medicines.length-1]);\r\n        medicineCount--;\r\n    }\r\n\r\n    function getMedicine(uint index) public view returns(string memory, string memory, string memory, uint) {\r\n        // if (index >= medicineCount) return (\"\",\"\", \"\", 0);\r\n        return (medicines[index]._id, medicines[index]._drugName, medicines[index]._brandName, medicines[index]._price);\r\n    }\r\n}",
  "sourcePath": "C:/dev/eth-prescriptions/contracts/MedicineContract.sol",
  "compiler": {
    "name": "solc",
    "version": "0.5.16+commit.9c3226ce.Emscripten.clang"
  },
  "schemaVersion": "3.3.3",
  "updatedAt": "2021-02-05T15:32:01.858Z",
  "networkType": "ethereum",
  "devdoc": {
    "methods": {}
  },
  "userdoc": {
    "methods": {}
  }
}